{
	"todo.sol": {
		"todo": {
			"abi": [
				{
					"inputs": [
						{
							"internalType": "string",
							"name": "_title",
							"type": "string"
						}
					],
					"name": "insert",
					"outputs": [],
					"stateMutability": "nonpayable",
					"type": "function"
				},
				{
					"inputs": [
						{
							"internalType": "uint256",
							"name": "",
							"type": "uint256"
						}
					],
					"name": "list",
					"outputs": [
						{
							"internalType": "string",
							"name": "title",
							"type": "string"
						},
						{
							"internalType": "bool",
							"name": "completed",
							"type": "bool"
						}
					],
					"stateMutability": "view",
					"type": "function"
				},
				{
					"inputs": [
						{
							"internalType": "uint256",
							"name": "index",
							"type": "uint256"
						},
						{
							"internalType": "string",
							"name": "_title",
							"type": "string"
						}
					],
					"name": "update",
					"outputs": [],
					"stateMutability": "nonpayable",
					"type": "function"
				}
			],
			"devdoc": {
				"kind": "dev",
				"methods": {},
				"version": 1
			},
			"evm": {
				"assembly": "    /* \"todo.sol\":60:399  contract todo{... */\n  mstore(0x40, 0x80)\n  callvalue\n  dup1\n  iszero\n  tag_1\n  jumpi\n  0x00\n  dup1\n  revert\ntag_1:\n  pop\n  dataSize(sub_0)\n  dup1\n  dataOffset(sub_0)\n  0x00\n  codecopy\n  0x00\n  return\nstop\n\nsub_0: assembly {\n        /* \"todo.sol\":60:399  contract todo{... */\n      mstore(0x40, 0x80)\n      callvalue\n      dup1\n      iszero\n      tag_1\n      jumpi\n      0x00\n      dup1\n      revert\n    tag_1:\n      pop\n      jumpi(tag_2, lt(calldatasize, 0x04))\n      shr(0xe0, calldataload(0x00))\n      dup1\n      0x80c9419e\n      eq\n      tag_3\n      jumpi\n      dup1\n      0xb1498e29\n      eq\n      tag_4\n      jumpi\n      dup1\n      0xf745630f\n      eq\n      tag_5\n      jumpi\n    tag_2:\n      0x00\n      dup1\n      revert\n        /* \"todo.sol\":157:175  zara[] public list */\n    tag_3:\n      tag_6\n      0x04\n      dup1\n      calldatasize\n      sub\n      dup2\n      add\n      swap1\n      tag_7\n      swap2\n      swap1\n      tag_8\n      jump\t// in\n    tag_7:\n      tag_9\n      jump\t// in\n    tag_6:\n      mload(0x40)\n      tag_10\n      swap3\n      swap2\n      swap1\n      tag_11\n      jump\t// in\n    tag_10:\n      mload(0x40)\n      dup1\n      swap2\n      sub\n      swap1\n      return\n        /* \"todo.sol\":184:281  function insert( string memory _title) public {... */\n    tag_4:\n      tag_12\n      0x04\n      dup1\n      calldatasize\n      sub\n      dup2\n      add\n      swap1\n      tag_13\n      swap2\n      swap1\n      tag_14\n      jump\t// in\n    tag_13:\n      tag_15\n      jump\t// in\n    tag_12:\n      stop\n        /* \"todo.sol\":289:390  function update(uint index, string memory _title) public {... */\n    tag_5:\n      tag_16\n      0x04\n      dup1\n      calldatasize\n      sub\n      dup2\n      add\n      swap1\n      tag_17\n      swap2\n      swap1\n      tag_18\n      jump\t// in\n    tag_17:\n      tag_19\n      jump\t// in\n    tag_16:\n      stop\n        /* \"todo.sol\":157:175  zara[] public list */\n    tag_9:\n      0x00\n      dup2\n      dup2\n      sload\n      dup2\n      lt\n      tag_20\n      jumpi\n      0x00\n      dup1\n      revert\n    tag_20:\n      swap1\n      0x00\n      mstore\n      keccak256(0x00, 0x20)\n      swap1\n      0x02\n      mul\n      add\n      0x00\n      swap2\n      pop\n      swap1\n      pop\n      dup1\n      0x00\n      add\n      dup1\n      sload\n      tag_22\n      swap1\n      tag_23\n      jump\t// in\n    tag_22:\n      dup1\n      0x1f\n      add\n      0x20\n      dup1\n      swap2\n      div\n      mul\n      0x20\n      add\n      mload(0x40)\n      swap1\n      dup2\n      add\n      0x40\n      mstore\n      dup1\n      swap3\n      swap2\n      swap1\n      dup2\n      dup2\n      mstore\n      0x20\n      add\n      dup3\n      dup1\n      sload\n      tag_24\n      swap1\n      tag_23\n      jump\t// in\n    tag_24:\n      dup1\n      iszero\n      tag_25\n      jumpi\n      dup1\n      0x1f\n      lt\n      tag_26\n      jumpi\n      0x0100\n      dup1\n      dup4\n      sload\n      div\n      mul\n      dup4\n      mstore\n      swap2\n      0x20\n      add\n      swap2\n      jump(tag_25)\n    tag_26:\n      dup3\n      add\n      swap2\n      swap1\n      0x00\n      mstore\n      keccak256(0x00, 0x20)\n      swap1\n    tag_27:\n      dup2\n      sload\n      dup2\n      mstore\n      swap1\n      0x01\n      add\n      swap1\n      0x20\n      add\n      dup1\n      dup4\n      gt\n      tag_27\n      jumpi\n      dup3\n      swap1\n      sub\n      0x1f\n      and\n      dup3\n      add\n      swap2\n    tag_25:\n      pop\n      pop\n      pop\n      pop\n      pop\n      swap1\n      dup1\n      0x01\n      add\n      0x00\n      swap1\n      sload\n      swap1\n      0x0100\n      exp\n      swap1\n      div\n      0xff\n      and\n      swap1\n      pop\n      dup3\n      jump\t// out\n        /* \"todo.sol\":184:281  function insert( string memory _title) public {... */\n    tag_15:\n        /* \"todo.sol\":243:247  list */\n      0x00\n        /* \"todo.sol\":253:272  zara(_title, false) */\n      mload(0x40)\n      dup1\n      0x40\n      add\n      0x40\n      mstore\n      dup1\n        /* \"todo.sol\":258:264  _title */\n      dup4\n        /* \"todo.sol\":253:272  zara(_title, false) */\n      dup2\n      mstore\n      0x20\n      add\n        /* \"todo.sol\":266:271  false */\n      0x00\n        /* \"todo.sol\":253:272  zara(_title, false) */\n      iszero\n      iszero\n      dup2\n      mstore\n      pop\n        /* \"todo.sol\":243:273  list.push(zara(_title, false)) */\n      swap1\n      dup1\n      0x01\n      dup2\n      sload\n      add\n      dup1\n      dup3\n      sstore\n      dup1\n      swap2\n      pop\n      pop\n      0x01\n      swap1\n      sub\n      swap1\n      0x00\n      mstore\n      keccak256(0x00, 0x20)\n      swap1\n      0x02\n      mul\n      add\n      0x00\n      swap1\n      swap2\n      swap1\n      swap2\n      swap1\n      swap2\n      pop\n      0x00\n      dup3\n      add\n      mload\n      dup2\n      0x00\n      add\n      swap1\n      dup2\n      tag_30\n      swap2\n      swap1\n      tag_31\n      jump\t// in\n    tag_30:\n      pop\n      0x20\n      dup3\n      add\n      mload\n      dup2\n      0x01\n      add\n      exp(0x0100, 0x00)\n      dup2\n      sload\n      dup2\n      0xff\n      mul\n      not\n      and\n      swap1\n      dup4\n      iszero\n      iszero\n      mul\n      or\n      swap1\n      sstore\n      pop\n      pop\n      pop\n        /* \"todo.sol\":184:281  function insert( string memory _title) public {... */\n      pop\n      jump\t// out\n        /* \"todo.sol\":289:390  function update(uint index, string memory _title) public {... */\n    tag_19:\n        /* \"todo.sol\":376:382  _title */\n      dup1\n        /* \"todo.sol\":357:361  list */\n      0x00\n        /* \"todo.sol\":362:367  index */\n      dup4\n        /* \"todo.sol\":357:368  list[index] */\n      dup2\n      sload\n      dup2\n      lt\n      tag_33\n      jumpi\n      tag_34\n      tag_35\n      jump\t// in\n    tag_34:\n    tag_33:\n      swap1\n      0x00\n      mstore\n      keccak256(0x00, 0x20)\n      swap1\n      0x02\n      mul\n      add\n        /* \"todo.sol\":357:374  list[index].title */\n      0x00\n      add\n        /* \"todo.sol\":357:382  list[index].title =_title */\n      swap1\n      dup2\n      tag_37\n      swap2\n      swap1\n      tag_31\n      jump\t// in\n    tag_37:\n      pop\n        /* \"todo.sol\":289:390  function update(uint index, string memory _title) public {... */\n      pop\n      pop\n      jump\t// out\n        /* \"#utility.yul\":7:82   */\n    tag_38:\n        /* \"#utility.yul\":40:46   */\n      0x00\n        /* \"#utility.yul\":73:75   */\n      0x40\n        /* \"#utility.yul\":67:76   */\n      mload\n        /* \"#utility.yul\":57:76   */\n      swap1\n      pop\n        /* \"#utility.yul\":7:82   */\n      swap1\n      jump\t// out\n        /* \"#utility.yul\":88:205   */\n    tag_39:\n        /* \"#utility.yul\":197:198   */\n      0x00\n        /* \"#utility.yul\":194:195   */\n      dup1\n        /* \"#utility.yul\":187:199   */\n      revert\n        /* \"#utility.yul\":211:328   */\n    tag_40:\n        /* \"#utility.yul\":320:321   */\n      0x00\n        /* \"#utility.yul\":317:318   */\n      dup1\n        /* \"#utility.yul\":310:322   */\n      revert\n        /* \"#utility.yul\":334:411   */\n    tag_41:\n        /* \"#utility.yul\":371:378   */\n      0x00\n        /* \"#utility.yul\":400:405   */\n      dup2\n        /* \"#utility.yul\":389:405   */\n      swap1\n      pop\n        /* \"#utility.yul\":334:411   */\n      swap2\n      swap1\n      pop\n      jump\t// out\n        /* \"#utility.yul\":417:539   */\n    tag_42:\n        /* \"#utility.yul\":490:514   */\n      tag_82\n        /* \"#utility.yul\":508:513   */\n      dup2\n        /* \"#utility.yul\":490:514   */\n      tag_41\n      jump\t// in\n    tag_82:\n        /* \"#utility.yul\":483:488   */\n      dup2\n        /* \"#utility.yul\":480:515   */\n      eq\n        /* \"#utility.yul\":470:533   */\n      tag_83\n      jumpi\n        /* \"#utility.yul\":529:530   */\n      0x00\n        /* \"#utility.yul\":526:527   */\n      dup1\n        /* \"#utility.yul\":519:531   */\n      revert\n        /* \"#utility.yul\":470:533   */\n    tag_83:\n        /* \"#utility.yul\":417:539   */\n      pop\n      jump\t// out\n        /* \"#utility.yul\":545:684   */\n    tag_43:\n        /* \"#utility.yul\":591:596   */\n      0x00\n        /* \"#utility.yul\":629:635   */\n      dup2\n        /* \"#utility.yul\":616:636   */\n      calldataload\n        /* \"#utility.yul\":607:636   */\n      swap1\n      pop\n        /* \"#utility.yul\":645:678   */\n      tag_85\n        /* \"#utility.yul\":672:677   */\n      dup2\n        /* \"#utility.yul\":645:678   */\n      tag_42\n      jump\t// in\n    tag_85:\n        /* \"#utility.yul\":545:684   */\n      swap3\n      swap2\n      pop\n      pop\n      jump\t// out\n        /* \"#utility.yul\":690:1019   */\n    tag_8:\n        /* \"#utility.yul\":749:755   */\n      0x00\n        /* \"#utility.yul\":798:800   */\n      0x20\n        /* \"#utility.yul\":786:795   */\n      dup3\n        /* \"#utility.yul\":777:784   */\n      dup5\n        /* \"#utility.yul\":773:796   */\n      sub\n        /* \"#utility.yul\":769:801   */\n      slt\n        /* \"#utility.yul\":766:885   */\n      iszero\n      tag_87\n      jumpi\n        /* \"#utility.yul\":804:883   */\n      tag_88\n      tag_39\n      jump\t// in\n    tag_88:\n        /* \"#utility.yul\":766:885   */\n    tag_87:\n        /* \"#utility.yul\":924:925   */\n      0x00\n        /* \"#utility.yul\":949:1002   */\n      tag_89\n        /* \"#utility.yul\":994:1001   */\n      dup5\n        /* \"#utility.yul\":985:991   */\n      dup3\n        /* \"#utility.yul\":974:983   */\n      dup6\n        /* \"#utility.yul\":970:992   */\n      add\n        /* \"#utility.yul\":949:1002   */\n      tag_43\n      jump\t// in\n    tag_89:\n        /* \"#utility.yul\":939:1002   */\n      swap2\n      pop\n        /* \"#utility.yul\":895:1012   */\n      pop\n        /* \"#utility.yul\":690:1019   */\n      swap3\n      swap2\n      pop\n      pop\n      jump\t// out\n        /* \"#utility.yul\":1025:1124   */\n    tag_44:\n        /* \"#utility.yul\":1077:1083   */\n      0x00\n        /* \"#utility.yul\":1111:1116   */\n      dup2\n        /* \"#utility.yul\":1105:1117   */\n      mload\n        /* \"#utility.yul\":1095:1117   */\n      swap1\n      pop\n        /* \"#utility.yul\":1025:1124   */\n      swap2\n      swap1\n      pop\n      jump\t// out\n        /* \"#utility.yul\":1130:1299   */\n    tag_45:\n        /* \"#utility.yul\":1214:1225   */\n      0x00\n        /* \"#utility.yul\":1248:1254   */\n      dup3\n        /* \"#utility.yul\":1243:1246   */\n      dup3\n        /* \"#utility.yul\":1236:1255   */\n      mstore\n        /* \"#utility.yul\":1288:1292   */\n      0x20\n        /* \"#utility.yul\":1283:1286   */\n      dup3\n        /* \"#utility.yul\":1279:1293   */\n      add\n        /* \"#utility.yul\":1264:1293   */\n      swap1\n      pop\n        /* \"#utility.yul\":1130:1299   */\n      swap3\n      swap2\n      pop\n      pop\n      jump\t// out\n        /* \"#utility.yul\":1305:1551   */\n    tag_46:\n        /* \"#utility.yul\":1386:1387   */\n      0x00\n        /* \"#utility.yul\":1396:1509   */\n    tag_93:\n        /* \"#utility.yul\":1410:1416   */\n      dup4\n        /* \"#utility.yul\":1407:1408   */\n      dup2\n        /* \"#utility.yul\":1404:1417   */\n      lt\n        /* \"#utility.yul\":1396:1509   */\n      iszero\n      tag_95\n      jumpi\n        /* \"#utility.yul\":1495:1496   */\n      dup1\n        /* \"#utility.yul\":1490:1493   */\n      dup3\n        /* \"#utility.yul\":1486:1497   */\n      add\n        /* \"#utility.yul\":1480:1498   */\n      mload\n        /* \"#utility.yul\":1476:1477   */\n      dup2\n        /* \"#utility.yul\":1471:1474   */\n      dup5\n        /* \"#utility.yul\":1467:1478   */\n      add\n        /* \"#utility.yul\":1460:1499   */\n      mstore\n        /* \"#utility.yul\":1432:1434   */\n      0x20\n        /* \"#utility.yul\":1429:1430   */\n      dup2\n        /* \"#utility.yul\":1425:1435   */\n      add\n        /* \"#utility.yul\":1420:1435   */\n      swap1\n      pop\n        /* \"#utility.yul\":1396:1509   */\n      jump(tag_93)\n    tag_95:\n        /* \"#utility.yul\":1543:1544   */\n      0x00\n        /* \"#utility.yul\":1534:1540   */\n      dup5\n        /* \"#utility.yul\":1529:1532   */\n      dup5\n        /* \"#utility.yul\":1525:1541   */\n      add\n        /* \"#utility.yul\":1518:1545   */\n      mstore\n        /* \"#utility.yul\":1367:1551   */\n      pop\n        /* \"#utility.yul\":1305:1551   */\n      pop\n      pop\n      pop\n      jump\t// out\n        /* \"#utility.yul\":1557:1659   */\n    tag_47:\n        /* \"#utility.yul\":1598:1604   */\n      0x00\n        /* \"#utility.yul\":1649:1651   */\n      0x1f\n        /* \"#utility.yul\":1645:1652   */\n      not\n        /* \"#utility.yul\":1640:1642   */\n      0x1f\n        /* \"#utility.yul\":1633:1638   */\n      dup4\n        /* \"#utility.yul\":1629:1643   */\n      add\n        /* \"#utility.yul\":1625:1653   */\n      and\n        /* \"#utility.yul\":1615:1653   */\n      swap1\n      pop\n        /* \"#utility.yul\":1557:1659   */\n      swap2\n      swap1\n      pop\n      jump\t// out\n        /* \"#utility.yul\":1665:2042   */\n    tag_48:\n        /* \"#utility.yul\":1753:1756   */\n      0x00\n        /* \"#utility.yul\":1781:1820   */\n      tag_98\n        /* \"#utility.yul\":1814:1819   */\n      dup3\n        /* \"#utility.yul\":1781:1820   */\n      tag_44\n      jump\t// in\n    tag_98:\n        /* \"#utility.yul\":1836:1907   */\n      tag_99\n        /* \"#utility.yul\":1900:1906   */\n      dup2\n        /* \"#utility.yul\":1895:1898   */\n      dup6\n        /* \"#utility.yul\":1836:1907   */\n      tag_45\n      jump\t// in\n    tag_99:\n        /* \"#utility.yul\":1829:1907   */\n      swap4\n      pop\n        /* \"#utility.yul\":1916:1981   */\n      tag_100\n        /* \"#utility.yul\":1974:1980   */\n      dup2\n        /* \"#utility.yul\":1969:1972   */\n      dup6\n        /* \"#utility.yul\":1962:1966   */\n      0x20\n        /* \"#utility.yul\":1955:1960   */\n      dup7\n        /* \"#utility.yul\":1951:1967   */\n      add\n        /* \"#utility.yul\":1916:1981   */\n      tag_46\n      jump\t// in\n    tag_100:\n        /* \"#utility.yul\":2006:2035   */\n      tag_101\n        /* \"#utility.yul\":2028:2034   */\n      dup2\n        /* \"#utility.yul\":2006:2035   */\n      tag_47\n      jump\t// in\n    tag_101:\n        /* \"#utility.yul\":2001:2004   */\n      dup5\n        /* \"#utility.yul\":1997:2036   */\n      add\n        /* \"#utility.yul\":1990:2036   */\n      swap2\n      pop\n        /* \"#utility.yul\":1757:2042   */\n      pop\n        /* \"#utility.yul\":1665:2042   */\n      swap3\n      swap2\n      pop\n      pop\n      jump\t// out\n        /* \"#utility.yul\":2048:2138   */\n    tag_49:\n        /* \"#utility.yul\":2082:2089   */\n      0x00\n        /* \"#utility.yul\":2125:2130   */\n      dup2\n        /* \"#utility.yul\":2118:2131   */\n      iszero\n        /* \"#utility.yul\":2111:2132   */\n      iszero\n        /* \"#utility.yul\":2100:2132   */\n      swap1\n      pop\n        /* \"#utility.yul\":2048:2138   */\n      swap2\n      swap1\n      pop\n      jump\t// out\n        /* \"#utility.yul\":2144:2253   */\n    tag_50:\n        /* \"#utility.yul\":2225:2246   */\n      tag_104\n        /* \"#utility.yul\":2240:2245   */\n      dup2\n        /* \"#utility.yul\":2225:2246   */\n      tag_49\n      jump\t// in\n    tag_104:\n        /* \"#utility.yul\":2220:2223   */\n      dup3\n        /* \"#utility.yul\":2213:2247   */\n      mstore\n        /* \"#utility.yul\":2144:2253   */\n      pop\n      pop\n      jump\t// out\n        /* \"#utility.yul\":2259:2670   */\n    tag_11:\n        /* \"#utility.yul\":2394:2398   */\n      0x00\n        /* \"#utility.yul\":2432:2434   */\n      0x40\n        /* \"#utility.yul\":2421:2430   */\n      dup3\n        /* \"#utility.yul\":2417:2435   */\n      add\n        /* \"#utility.yul\":2409:2435   */\n      swap1\n      pop\n        /* \"#utility.yul\":2481:2490   */\n      dup2\n        /* \"#utility.yul\":2475:2479   */\n      dup2\n        /* \"#utility.yul\":2471:2491   */\n      sub\n        /* \"#utility.yul\":2467:2468   */\n      0x00\n        /* \"#utility.yul\":2456:2465   */\n      dup4\n        /* \"#utility.yul\":2452:2469   */\n      add\n        /* \"#utility.yul\":2445:2492   */\n      mstore\n        /* \"#utility.yul\":2509:2587   */\n      tag_106\n        /* \"#utility.yul\":2582:2586   */\n      dup2\n        /* \"#utility.yul\":2573:2579   */\n      dup6\n        /* \"#utility.yul\":2509:2587   */\n      tag_48\n      jump\t// in\n    tag_106:\n        /* \"#utility.yul\":2501:2587   */\n      swap1\n      pop\n        /* \"#utility.yul\":2597:2663   */\n      tag_107\n        /* \"#utility.yul\":2659:2661   */\n      0x20\n        /* \"#utility.yul\":2648:2657   */\n      dup4\n        /* \"#utility.yul\":2644:2662   */\n      add\n        /* \"#utility.yul\":2635:2641   */\n      dup5\n        /* \"#utility.yul\":2597:2663   */\n      tag_50\n      jump\t// in\n    tag_107:\n        /* \"#utility.yul\":2259:2670   */\n      swap4\n      swap3\n      pop\n      pop\n      pop\n      jump\t// out\n        /* \"#utility.yul\":2676:2793   */\n    tag_51:\n        /* \"#utility.yul\":2785:2786   */\n      0x00\n        /* \"#utility.yul\":2782:2783   */\n      dup1\n        /* \"#utility.yul\":2775:2787   */\n      revert\n        /* \"#utility.yul\":2799:2916   */\n    tag_52:\n        /* \"#utility.yul\":2908:2909   */\n      0x00\n        /* \"#utility.yul\":2905:2906   */\n      dup1\n        /* \"#utility.yul\":2898:2910   */\n      revert\n        /* \"#utility.yul\":2922:3102   */\n    tag_53:\n        /* \"#utility.yul\":2970:3047   */\n      0x4e487b7100000000000000000000000000000000000000000000000000000000\n        /* \"#utility.yul\":2967:2968   */\n      0x00\n        /* \"#utility.yul\":2960:3048   */\n      mstore\n        /* \"#utility.yul\":3067:3071   */\n      0x41\n        /* \"#utility.yul\":3064:3065   */\n      0x04\n        /* \"#utility.yul\":3057:3072   */\n      mstore\n        /* \"#utility.yul\":3091:3095   */\n      0x24\n        /* \"#utility.yul\":3088:3089   */\n      0x00\n        /* \"#utility.yul\":3081:3096   */\n      revert\n        /* \"#utility.yul\":3108:3389   */\n    tag_54:\n        /* \"#utility.yul\":3191:3218   */\n      tag_112\n        /* \"#utility.yul\":3213:3217   */\n      dup3\n        /* \"#utility.yul\":3191:3218   */\n      tag_47\n      jump\t// in\n    tag_112:\n        /* \"#utility.yul\":3183:3189   */\n      dup2\n        /* \"#utility.yul\":3179:3219   */\n      add\n        /* \"#utility.yul\":3321:3327   */\n      dup2\n        /* \"#utility.yul\":3309:3319   */\n      dup2\n        /* \"#utility.yul\":3306:3328   */\n      lt\n        /* \"#utility.yul\":3285:3303   */\n      0xffffffffffffffff\n        /* \"#utility.yul\":3273:3283   */\n      dup3\n        /* \"#utility.yul\":3270:3304   */\n      gt\n        /* \"#utility.yul\":3267:3329   */\n      or\n        /* \"#utility.yul\":3264:3352   */\n      iszero\n      tag_113\n      jumpi\n        /* \"#utility.yul\":3332:3350   */\n      tag_114\n      tag_53\n      jump\t// in\n    tag_114:\n        /* \"#utility.yul\":3264:3352   */\n    tag_113:\n        /* \"#utility.yul\":3372:3382   */\n      dup1\n        /* \"#utility.yul\":3368:3370   */\n      0x40\n        /* \"#utility.yul\":3361:3383   */\n      mstore\n        /* \"#utility.yul\":3151:3389   */\n      pop\n        /* \"#utility.yul\":3108:3389   */\n      pop\n      pop\n      jump\t// out\n        /* \"#utility.yul\":3395:3524   */\n    tag_55:\n        /* \"#utility.yul\":3429:3435   */\n      0x00\n        /* \"#utility.yul\":3456:3476   */\n      tag_116\n      tag_38\n      jump\t// in\n    tag_116:\n        /* \"#utility.yul\":3446:3476   */\n      swap1\n      pop\n        /* \"#utility.yul\":3485:3518   */\n      tag_117\n        /* \"#utility.yul\":3513:3517   */\n      dup3\n        /* \"#utility.yul\":3505:3511   */\n      dup3\n        /* \"#utility.yul\":3485:3518   */\n      tag_54\n      jump\t// in\n    tag_117:\n        /* \"#utility.yul\":3395:3524   */\n      swap2\n      swap1\n      pop\n      jump\t// out\n        /* \"#utility.yul\":3530:3838   */\n    tag_56:\n        /* \"#utility.yul\":3592:3596   */\n      0x00\n        /* \"#utility.yul\":3682:3700   */\n      0xffffffffffffffff\n        /* \"#utility.yul\":3674:3680   */\n      dup3\n        /* \"#utility.yul\":3671:3701   */\n      gt\n        /* \"#utility.yul\":3668:3724   */\n      iszero\n      tag_119\n      jumpi\n        /* \"#utility.yul\":3704:3722   */\n      tag_120\n      tag_53\n      jump\t// in\n    tag_120:\n        /* \"#utility.yul\":3668:3724   */\n    tag_119:\n        /* \"#utility.yul\":3742:3771   */\n      tag_121\n        /* \"#utility.yul\":3764:3770   */\n      dup3\n        /* \"#utility.yul\":3742:3771   */\n      tag_47\n      jump\t// in\n    tag_121:\n        /* \"#utility.yul\":3734:3771   */\n      swap1\n      pop\n        /* \"#utility.yul\":3826:3830   */\n      0x20\n        /* \"#utility.yul\":3820:3824   */\n      dup2\n        /* \"#utility.yul\":3816:3831   */\n      add\n        /* \"#utility.yul\":3808:3831   */\n      swap1\n      pop\n        /* \"#utility.yul\":3530:3838   */\n      swap2\n      swap1\n      pop\n      jump\t// out\n        /* \"#utility.yul\":3844:3990   */\n    tag_57:\n        /* \"#utility.yul\":3941:3947   */\n      dup3\n        /* \"#utility.yul\":3936:3939   */\n      dup2\n        /* \"#utility.yul\":3931:3934   */\n      dup4\n        /* \"#utility.yul\":3918:3948   */\n      calldatacopy\n        /* \"#utility.yul\":3982:3983   */\n      0x00\n        /* \"#utility.yul\":3973:3979   */\n      dup4\n        /* \"#utility.yul\":3968:3971   */\n      dup4\n        /* \"#utility.yul\":3964:3980   */\n      add\n        /* \"#utility.yul\":3957:3984   */\n      mstore\n        /* \"#utility.yul\":3844:3990   */\n      pop\n      pop\n      pop\n      jump\t// out\n        /* \"#utility.yul\":3996:4421   */\n    tag_58:\n        /* \"#utility.yul\":4074:4079   */\n      0x00\n        /* \"#utility.yul\":4099:4165   */\n      tag_124\n        /* \"#utility.yul\":4115:4164   */\n      tag_125\n        /* \"#utility.yul\":4157:4163   */\n      dup5\n        /* \"#utility.yul\":4115:4164   */\n      tag_56\n      jump\t// in\n    tag_125:\n        /* \"#utility.yul\":4099:4165   */\n      tag_55\n      jump\t// in\n    tag_124:\n        /* \"#utility.yul\":4090:4165   */\n      swap1\n      pop\n        /* \"#utility.yul\":4188:4194   */\n      dup3\n        /* \"#utility.yul\":4181:4186   */\n      dup2\n        /* \"#utility.yul\":4174:4195   */\n      mstore\n        /* \"#utility.yul\":4226:4230   */\n      0x20\n        /* \"#utility.yul\":4219:4224   */\n      dup2\n        /* \"#utility.yul\":4215:4231   */\n      add\n        /* \"#utility.yul\":4264:4267   */\n      dup5\n        /* \"#utility.yul\":4255:4261   */\n      dup5\n        /* \"#utility.yul\":4250:4253   */\n      dup5\n        /* \"#utility.yul\":4246:4262   */\n      add\n        /* \"#utility.yul\":4243:4268   */\n      gt\n        /* \"#utility.yul\":4240:4352   */\n      iszero\n      tag_126\n      jumpi\n        /* \"#utility.yul\":4271:4350   */\n      tag_127\n      tag_52\n      jump\t// in\n    tag_127:\n        /* \"#utility.yul\":4240:4352   */\n    tag_126:\n        /* \"#utility.yul\":4361:4415   */\n      tag_128\n        /* \"#utility.yul\":4408:4414   */\n      dup5\n        /* \"#utility.yul\":4403:4406   */\n      dup3\n        /* \"#utility.yul\":4398:4401   */\n      dup6\n        /* \"#utility.yul\":4361:4415   */\n      tag_57\n      jump\t// in\n    tag_128:\n        /* \"#utility.yul\":4080:4421   */\n      pop\n        /* \"#utility.yul\":3996:4421   */\n      swap4\n      swap3\n      pop\n      pop\n      pop\n      jump\t// out\n        /* \"#utility.yul\":4441:4781   */\n    tag_59:\n        /* \"#utility.yul\":4497:4502   */\n      0x00\n        /* \"#utility.yul\":4546:4549   */\n      dup3\n        /* \"#utility.yul\":4539:4543   */\n      0x1f\n        /* \"#utility.yul\":4531:4537   */\n      dup4\n        /* \"#utility.yul\":4527:4544   */\n      add\n        /* \"#utility.yul\":4523:4550   */\n      slt\n        /* \"#utility.yul\":4513:4635   */\n      tag_130\n      jumpi\n        /* \"#utility.yul\":4554:4633   */\n      tag_131\n      tag_51\n      jump\t// in\n    tag_131:\n        /* \"#utility.yul\":4513:4635   */\n    tag_130:\n        /* \"#utility.yul\":4671:4677   */\n      dup2\n        /* \"#utility.yul\":4658:4678   */\n      calldataload\n        /* \"#utility.yul\":4696:4775   */\n      tag_132\n        /* \"#utility.yul\":4771:4774   */\n      dup5\n        /* \"#utility.yul\":4763:4769   */\n      dup3\n        /* \"#utility.yul\":4756:4760   */\n      0x20\n        /* \"#utility.yul\":4748:4754   */\n      dup7\n        /* \"#utility.yul\":4744:4761   */\n      add\n        /* \"#utility.yul\":4696:4775   */\n      tag_58\n      jump\t// in\n    tag_132:\n        /* \"#utility.yul\":4687:4775   */\n      swap2\n      pop\n        /* \"#utility.yul\":4503:4781   */\n      pop\n        /* \"#utility.yul\":4441:4781   */\n      swap3\n      swap2\n      pop\n      pop\n      jump\t// out\n        /* \"#utility.yul\":4787:5296   */\n    tag_14:\n        /* \"#utility.yul\":4856:4862   */\n      0x00\n        /* \"#utility.yul\":4905:4907   */\n      0x20\n        /* \"#utility.yul\":4893:4902   */\n      dup3\n        /* \"#utility.yul\":4884:4891   */\n      dup5\n        /* \"#utility.yul\":4880:4903   */\n      sub\n        /* \"#utility.yul\":4876:4908   */\n      slt\n        /* \"#utility.yul\":4873:4992   */\n      iszero\n      tag_134\n      jumpi\n        /* \"#utility.yul\":4911:4990   */\n      tag_135\n      tag_39\n      jump\t// in\n    tag_135:\n        /* \"#utility.yul\":4873:4992   */\n    tag_134:\n        /* \"#utility.yul\":5059:5060   */\n      0x00\n        /* \"#utility.yul\":5048:5057   */\n      dup3\n        /* \"#utility.yul\":5044:5061   */\n      add\n        /* \"#utility.yul\":5031:5062   */\n      calldataload\n        /* \"#utility.yul\":5089:5107   */\n      0xffffffffffffffff\n        /* \"#utility.yul\":5081:5087   */\n      dup2\n        /* \"#utility.yul\":5078:5108   */\n      gt\n        /* \"#utility.yul\":5075:5192   */\n      iszero\n      tag_136\n      jumpi\n        /* \"#utility.yul\":5111:5190   */\n      tag_137\n      tag_40\n      jump\t// in\n    tag_137:\n        /* \"#utility.yul\":5075:5192   */\n    tag_136:\n        /* \"#utility.yul\":5216:5279   */\n      tag_138\n        /* \"#utility.yul\":5271:5278   */\n      dup5\n        /* \"#utility.yul\":5262:5268   */\n      dup3\n        /* \"#utility.yul\":5251:5260   */\n      dup6\n        /* \"#utility.yul\":5247:5269   */\n      add\n        /* \"#utility.yul\":5216:5279   */\n      tag_59\n      jump\t// in\n    tag_138:\n        /* \"#utility.yul\":5206:5279   */\n      swap2\n      pop\n        /* \"#utility.yul\":5002:5289   */\n      pop\n        /* \"#utility.yul\":4787:5296   */\n      swap3\n      swap2\n      pop\n      pop\n      jump\t// out\n        /* \"#utility.yul\":5302:5956   */\n    tag_18:\n        /* \"#utility.yul\":5380:5386   */\n      0x00\n        /* \"#utility.yul\":5388:5394   */\n      dup1\n        /* \"#utility.yul\":5437:5439   */\n      0x40\n        /* \"#utility.yul\":5425:5434   */\n      dup4\n        /* \"#utility.yul\":5416:5423   */\n      dup6\n        /* \"#utility.yul\":5412:5435   */\n      sub\n        /* \"#utility.yul\":5408:5440   */\n      slt\n        /* \"#utility.yul\":5405:5524   */\n      iszero\n      tag_140\n      jumpi\n        /* \"#utility.yul\":5443:5522   */\n      tag_141\n      tag_39\n      jump\t// in\n    tag_141:\n        /* \"#utility.yul\":5405:5524   */\n    tag_140:\n        /* \"#utility.yul\":5563:5564   */\n      0x00\n        /* \"#utility.yul\":5588:5641   */\n      tag_142\n        /* \"#utility.yul\":5633:5640   */\n      dup6\n        /* \"#utility.yul\":5624:5630   */\n      dup3\n        /* \"#utility.yul\":5613:5622   */\n      dup7\n        /* \"#utility.yul\":5609:5631   */\n      add\n        /* \"#utility.yul\":5588:5641   */\n      tag_43\n      jump\t// in\n    tag_142:\n        /* \"#utility.yul\":5578:5641   */\n      swap3\n      pop\n        /* \"#utility.yul\":5534:5651   */\n      pop\n        /* \"#utility.yul\":5718:5720   */\n      0x20\n        /* \"#utility.yul\":5707:5716   */\n      dup4\n        /* \"#utility.yul\":5703:5721   */\n      add\n        /* \"#utility.yul\":5690:5722   */\n      calldataload\n        /* \"#utility.yul\":5749:5767   */\n      0xffffffffffffffff\n        /* \"#utility.yul\":5741:5747   */\n      dup2\n        /* \"#utility.yul\":5738:5768   */\n      gt\n        /* \"#utility.yul\":5735:5852   */\n      iszero\n      tag_143\n      jumpi\n        /* \"#utility.yul\":5771:5850   */\n      tag_144\n      tag_40\n      jump\t// in\n    tag_144:\n        /* \"#utility.yul\":5735:5852   */\n    tag_143:\n        /* \"#utility.yul\":5876:5939   */\n      tag_145\n        /* \"#utility.yul\":5931:5938   */\n      dup6\n        /* \"#utility.yul\":5922:5928   */\n      dup3\n        /* \"#utility.yul\":5911:5920   */\n      dup7\n        /* \"#utility.yul\":5907:5929   */\n      add\n        /* \"#utility.yul\":5876:5939   */\n      tag_59\n      jump\t// in\n    tag_145:\n        /* \"#utility.yul\":5866:5939   */\n      swap2\n      pop\n        /* \"#utility.yul\":5661:5949   */\n      pop\n        /* \"#utility.yul\":5302:5956   */\n      swap3\n      pop\n      swap3\n      swap1\n      pop\n      jump\t// out\n        /* \"#utility.yul\":5962:6142   */\n    tag_60:\n        /* \"#utility.yul\":6010:6087   */\n      0x4e487b7100000000000000000000000000000000000000000000000000000000\n        /* \"#utility.yul\":6007:6008   */\n      0x00\n        /* \"#utility.yul\":6000:6088   */\n      mstore\n        /* \"#utility.yul\":6107:6111   */\n      0x22\n        /* \"#utility.yul\":6104:6105   */\n      0x04\n        /* \"#utility.yul\":6097:6112   */\n      mstore\n        /* \"#utility.yul\":6131:6135   */\n      0x24\n        /* \"#utility.yul\":6128:6129   */\n      0x00\n        /* \"#utility.yul\":6121:6136   */\n      revert\n        /* \"#utility.yul\":6148:6468   */\n    tag_23:\n        /* \"#utility.yul\":6192:6198   */\n      0x00\n        /* \"#utility.yul\":6229:6230   */\n      0x02\n        /* \"#utility.yul\":6223:6227   */\n      dup3\n        /* \"#utility.yul\":6219:6231   */\n      div\n        /* \"#utility.yul\":6209:6231   */\n      swap1\n      pop\n        /* \"#utility.yul\":6276:6277   */\n      0x01\n        /* \"#utility.yul\":6270:6274   */\n      dup3\n        /* \"#utility.yul\":6266:6278   */\n      and\n        /* \"#utility.yul\":6297:6315   */\n      dup1\n        /* \"#utility.yul\":6287:6368   */\n      tag_148\n      jumpi\n        /* \"#utility.yul\":6353:6357   */\n      0x7f\n        /* \"#utility.yul\":6345:6351   */\n      dup3\n        /* \"#utility.yul\":6341:6358   */\n      and\n        /* \"#utility.yul\":6331:6358   */\n      swap2\n      pop\n        /* \"#utility.yul\":6287:6368   */\n    tag_148:\n        /* \"#utility.yul\":6415:6417   */\n      0x20\n        /* \"#utility.yul\":6407:6413   */\n      dup3\n        /* \"#utility.yul\":6404:6418   */\n      lt\n        /* \"#utility.yul\":6384:6402   */\n      dup2\n        /* \"#utility.yul\":6381:6419   */\n      sub\n        /* \"#utility.yul\":6378:6462   */\n      tag_149\n      jumpi\n        /* \"#utility.yul\":6434:6452   */\n      tag_150\n      tag_60\n      jump\t// in\n    tag_150:\n        /* \"#utility.yul\":6378:6462   */\n    tag_149:\n        /* \"#utility.yul\":6199:6468   */\n      pop\n        /* \"#utility.yul\":6148:6468   */\n      swap2\n      swap1\n      pop\n      jump\t// out\n        /* \"#utility.yul\":6474:6615   */\n    tag_61:\n        /* \"#utility.yul\":6523:6527   */\n      0x00\n        /* \"#utility.yul\":6546:6549   */\n      dup2\n        /* \"#utility.yul\":6538:6549   */\n      swap1\n      pop\n        /* \"#utility.yul\":6569:6572   */\n      dup2\n        /* \"#utility.yul\":6566:6567   */\n      0x00\n        /* \"#utility.yul\":6559:6573   */\n      mstore\n        /* \"#utility.yul\":6603:6607   */\n      0x20\n        /* \"#utility.yul\":6600:6601   */\n      0x00\n        /* \"#utility.yul\":6590:6608   */\n      keccak256\n        /* \"#utility.yul\":6582:6608   */\n      swap1\n      pop\n        /* \"#utility.yul\":6474:6615   */\n      swap2\n      swap1\n      pop\n      jump\t// out\n        /* \"#utility.yul\":6621:6714   */\n    tag_62:\n        /* \"#utility.yul\":6658:6664   */\n      0x00\n        /* \"#utility.yul\":6705:6707   */\n      0x20\n        /* \"#utility.yul\":6700:6702   */\n      0x1f\n        /* \"#utility.yul\":6693:6698   */\n      dup4\n        /* \"#utility.yul\":6689:6703   */\n      add\n        /* \"#utility.yul\":6685:6708   */\n      div\n        /* \"#utility.yul\":6675:6708   */\n      swap1\n      pop\n        /* \"#utility.yul\":6621:6714   */\n      swap2\n      swap1\n      pop\n      jump\t// out\n        /* \"#utility.yul\":6720:6827   */\n    tag_63:\n        /* \"#utility.yul\":6764:6772   */\n      0x00\n        /* \"#utility.yul\":6814:6819   */\n      dup3\n        /* \"#utility.yul\":6808:6812   */\n      dup3\n        /* \"#utility.yul\":6804:6820   */\n      shl\n        /* \"#utility.yul\":6783:6820   */\n      swap1\n      pop\n        /* \"#utility.yul\":6720:6827   */\n      swap3\n      swap2\n      pop\n      pop\n      jump\t// out\n        /* \"#utility.yul\":6833:7226   */\n    tag_64:\n        /* \"#utility.yul\":6902:6908   */\n      0x00\n        /* \"#utility.yul\":6952:6953   */\n      0x08\n        /* \"#utility.yul\":6940:6950   */\n      dup4\n        /* \"#utility.yul\":6936:6954   */\n      mul\n        /* \"#utility.yul\":6975:7072   */\n      tag_155\n        /* \"#utility.yul\":7005:7071   */\n      0xffffffffffffffffffffffffffffffffffffffffffffffffffffffffffffffff\n        /* \"#utility.yul\":6994:7003   */\n      dup3\n        /* \"#utility.yul\":6975:7072   */\n      tag_63\n      jump\t// in\n    tag_155:\n        /* \"#utility.yul\":7093:7132   */\n      tag_156\n        /* \"#utility.yul\":7123:7131   */\n      dup7\n        /* \"#utility.yul\":7112:7121   */\n      dup4\n        /* \"#utility.yul\":7093:7132   */\n      tag_63\n      jump\t// in\n    tag_156:\n        /* \"#utility.yul\":7081:7132   */\n      swap6\n      pop\n        /* \"#utility.yul\":7165:7169   */\n      dup1\n        /* \"#utility.yul\":7161:7170   */\n      not\n        /* \"#utility.yul\":7154:7159   */\n      dup5\n        /* \"#utility.yul\":7150:7171   */\n      and\n        /* \"#utility.yul\":7141:7171   */\n      swap4\n      pop\n        /* \"#utility.yul\":7214:7218   */\n      dup1\n        /* \"#utility.yul\":7204:7212   */\n      dup7\n        /* \"#utility.yul\":7200:7219   */\n      and\n        /* \"#utility.yul\":7193:7198   */\n      dup5\n        /* \"#utility.yul\":7190:7220   */\n      or\n        /* \"#utility.yul\":7180:7220   */\n      swap3\n      pop\n        /* \"#utility.yul\":6909:7226   */\n      pop\n      pop\n        /* \"#utility.yul\":6833:7226   */\n      swap4\n      swap3\n      pop\n      pop\n      pop\n      jump\t// out\n        /* \"#utility.yul\":7232:7292   */\n    tag_65:\n        /* \"#utility.yul\":7260:7263   */\n      0x00\n        /* \"#utility.yul\":7281:7286   */\n      dup2\n        /* \"#utility.yul\":7274:7286   */\n      swap1\n      pop\n        /* \"#utility.yul\":7232:7292   */\n      swap2\n      swap1\n      pop\n      jump\t// out\n        /* \"#utility.yul\":7298:7440   */\n    tag_66:\n        /* \"#utility.yul\":7348:7357   */\n      0x00\n        /* \"#utility.yul\":7381:7434   */\n      tag_159\n        /* \"#utility.yul\":7399:7433   */\n      tag_160\n        /* \"#utility.yul\":7408:7432   */\n      tag_161\n        /* \"#utility.yul\":7426:7431   */\n      dup5\n        /* \"#utility.yul\":7408:7432   */\n      tag_41\n      jump\t// in\n    tag_161:\n        /* \"#utility.yul\":7399:7433   */\n      tag_65\n      jump\t// in\n    tag_160:\n        /* \"#utility.yul\":7381:7434   */\n      tag_41\n      jump\t// in\n    tag_159:\n        /* \"#utility.yul\":7368:7434   */\n      swap1\n      pop\n        /* \"#utility.yul\":7298:7440   */\n      swap2\n      swap1\n      pop\n      jump\t// out\n        /* \"#utility.yul\":7446:7521   */\n    tag_67:\n        /* \"#utility.yul\":7489:7492   */\n      0x00\n        /* \"#utility.yul\":7510:7515   */\n      dup2\n        /* \"#utility.yul\":7503:7515   */\n      swap1\n      pop\n        /* \"#utility.yul\":7446:7521   */\n      swap2\n      swap1\n      pop\n      jump\t// out\n        /* \"#utility.yul\":7527:7796   */\n    tag_68:\n        /* \"#utility.yul\":7637:7676   */\n      tag_164\n        /* \"#utility.yul\":7668:7675   */\n      dup4\n        /* \"#utility.yul\":7637:7676   */\n      tag_66\n      jump\t// in\n    tag_164:\n        /* \"#utility.yul\":7698:7789   */\n      tag_165\n        /* \"#utility.yul\":7747:7788   */\n      tag_166\n        /* \"#utility.yul\":7771:7787   */\n      dup3\n        /* \"#utility.yul\":7747:7788   */\n      tag_67\n      jump\t// in\n    tag_166:\n        /* \"#utility.yul\":7739:7745   */\n      dup5\n        /* \"#utility.yul\":7732:7736   */\n      dup5\n        /* \"#utility.yul\":7726:7737   */\n      sload\n        /* \"#utility.yul\":7698:7789   */\n      tag_64\n      jump\t// in\n    tag_165:\n        /* \"#utility.yul\":7692:7696   */\n      dup3\n        /* \"#utility.yul\":7685:7790   */\n      sstore\n        /* \"#utility.yul\":7603:7796   */\n      pop\n        /* \"#utility.yul\":7527:7796   */\n      pop\n      pop\n      pop\n      jump\t// out\n        /* \"#utility.yul\":7802:7875   */\n    tag_69:\n        /* \"#utility.yul\":7847:7850   */\n      0x00\n        /* \"#utility.yul\":7802:7875   */\n      swap1\n      jump\t// out\n        /* \"#utility.yul\":7881:8070   */\n    tag_70:\n        /* \"#utility.yul\":7958:7990   */\n      tag_169\n      tag_69\n      jump\t// in\n    tag_169:\n        /* \"#utility.yul\":7999:8064   */\n      tag_170\n        /* \"#utility.yul\":8057:8063   */\n      dup2\n        /* \"#utility.yul\":8049:8055   */\n      dup5\n        /* \"#utility.yul\":8043:8047   */\n      dup5\n        /* \"#utility.yul\":7999:8064   */\n      tag_68\n      jump\t// in\n    tag_170:\n        /* \"#utility.yul\":7934:8070   */\n      pop\n        /* \"#utility.yul\":7881:8070   */\n      pop\n      pop\n      jump\t// out\n        /* \"#utility.yul\":8076:8262   */\n    tag_71:\n        /* \"#utility.yul\":8136:8256   */\n    tag_172:\n        /* \"#utility.yul\":8153:8156   */\n      dup2\n        /* \"#utility.yul\":8146:8151   */\n      dup2\n        /* \"#utility.yul\":8143:8157   */\n      lt\n        /* \"#utility.yul\":8136:8256   */\n      iszero\n      tag_174\n      jumpi\n        /* \"#utility.yul\":8207:8246   */\n      tag_175\n        /* \"#utility.yul\":8244:8245   */\n      0x00\n        /* \"#utility.yul\":8237:8242   */\n      dup3\n        /* \"#utility.yul\":8207:8246   */\n      tag_70\n      jump\t// in\n    tag_175:\n        /* \"#utility.yul\":8180:8181   */\n      0x01\n        /* \"#utility.yul\":8173:8178   */\n      dup2\n        /* \"#utility.yul\":8169:8182   */\n      add\n        /* \"#utility.yul\":8160:8182   */\n      swap1\n      pop\n        /* \"#utility.yul\":8136:8256   */\n      jump(tag_172)\n    tag_174:\n        /* \"#utility.yul\":8076:8262   */\n      pop\n      pop\n      jump\t// out\n        /* \"#utility.yul\":8268:8811   */\n    tag_72:\n        /* \"#utility.yul\":8369:8371   */\n      0x1f\n        /* \"#utility.yul\":8364:8367   */\n      dup3\n        /* \"#utility.yul\":8361:8372   */\n      gt\n        /* \"#utility.yul\":8358:8804   */\n      iszero\n      tag_177\n      jumpi\n        /* \"#utility.yul\":8403:8441   */\n      tag_178\n        /* \"#utility.yul\":8435:8440   */\n      dup2\n        /* \"#utility.yul\":8403:8441   */\n      tag_61\n      jump\t// in\n    tag_178:\n        /* \"#utility.yul\":8487:8516   */\n      tag_179\n        /* \"#utility.yul\":8505:8515   */\n      dup5\n        /* \"#utility.yul\":8487:8516   */\n      tag_62\n      jump\t// in\n    tag_179:\n        /* \"#utility.yul\":8477:8485   */\n      dup2\n        /* \"#utility.yul\":8473:8517   */\n      add\n        /* \"#utility.yul\":8670:8672   */\n      0x20\n        /* \"#utility.yul\":8658:8668   */\n      dup6\n        /* \"#utility.yul\":8655:8673   */\n      lt\n        /* \"#utility.yul\":8652:8701   */\n      iszero\n      tag_180\n      jumpi\n        /* \"#utility.yul\":8691:8699   */\n      dup2\n        /* \"#utility.yul\":8676:8699   */\n      swap1\n      pop\n        /* \"#utility.yul\":8652:8701   */\n    tag_180:\n        /* \"#utility.yul\":8714:8794   */\n      tag_181\n        /* \"#utility.yul\":8770:8792   */\n      tag_182\n        /* \"#utility.yul\":8788:8791   */\n      dup6\n        /* \"#utility.yul\":8770:8792   */\n      tag_62\n      jump\t// in\n    tag_182:\n        /* \"#utility.yul\":8760:8768   */\n      dup4\n        /* \"#utility.yul\":8756:8793   */\n      add\n        /* \"#utility.yul\":8743:8754   */\n      dup3\n        /* \"#utility.yul\":8714:8794   */\n      tag_71\n      jump\t// in\n    tag_181:\n        /* \"#utility.yul\":8373:8804   */\n      pop\n      pop\n        /* \"#utility.yul\":8358:8804   */\n    tag_177:\n        /* \"#utility.yul\":8268:8811   */\n      pop\n      pop\n      pop\n      jump\t// out\n        /* \"#utility.yul\":8817:8934   */\n    tag_73:\n        /* \"#utility.yul\":8871:8879   */\n      0x00\n        /* \"#utility.yul\":8921:8926   */\n      dup3\n        /* \"#utility.yul\":8915:8919   */\n      dup3\n        /* \"#utility.yul\":8911:8927   */\n      shr\n        /* \"#utility.yul\":8890:8927   */\n      swap1\n      pop\n        /* \"#utility.yul\":8817:8934   */\n      swap3\n      swap2\n      pop\n      pop\n      jump\t// out\n        /* \"#utility.yul\":8940:9109   */\n    tag_74:\n        /* \"#utility.yul\":8984:8990   */\n      0x00\n        /* \"#utility.yul\":9017:9068   */\n      tag_185\n        /* \"#utility.yul\":9065:9066   */\n      0x00\n        /* \"#utility.yul\":9061:9067   */\n      not\n        /* \"#utility.yul\":9053:9058   */\n      dup5\n        /* \"#utility.yul\":9050:9051   */\n      0x08\n        /* \"#utility.yul\":9046:9059   */\n      mul\n        /* \"#utility.yul\":9017:9068   */\n      tag_73\n      jump\t// in\n    tag_185:\n        /* \"#utility.yul\":9013:9069   */\n      not\n        /* \"#utility.yul\":9098:9102   */\n      dup1\n        /* \"#utility.yul\":9092:9096   */\n      dup4\n        /* \"#utility.yul\":9088:9103   */\n      and\n        /* \"#utility.yul\":9078:9103   */\n      swap2\n      pop\n        /* \"#utility.yul\":8991:9109   */\n      pop\n        /* \"#utility.yul\":8940:9109   */\n      swap3\n      swap2\n      pop\n      pop\n      jump\t// out\n        /* \"#utility.yul\":9114:9409   */\n    tag_75:\n        /* \"#utility.yul\":9190:9194   */\n      0x00\n        /* \"#utility.yul\":9336:9365   */\n      tag_187\n        /* \"#utility.yul\":9361:9364   */\n      dup4\n        /* \"#utility.yul\":9355:9359   */\n      dup4\n        /* \"#utility.yul\":9336:9365   */\n      tag_74\n      jump\t// in\n    tag_187:\n        /* \"#utility.yul\":9328:9365   */\n      swap2\n      pop\n        /* \"#utility.yul\":9398:9401   */\n      dup3\n        /* \"#utility.yul\":9395:9396   */\n      0x02\n        /* \"#utility.yul\":9391:9402   */\n      mul\n        /* \"#utility.yul\":9385:9389   */\n      dup3\n        /* \"#utility.yul\":9382:9403   */\n      or\n        /* \"#utility.yul\":9374:9403   */\n      swap1\n      pop\n        /* \"#utility.yul\":9114:9409   */\n      swap3\n      swap2\n      pop\n      pop\n      jump\t// out\n        /* \"#utility.yul\":9414:10809   */\n    tag_31:\n        /* \"#utility.yul\":9531:9568   */\n      tag_189\n        /* \"#utility.yul\":9564:9567   */\n      dup3\n        /* \"#utility.yul\":9531:9568   */\n      tag_44\n      jump\t// in\n    tag_189:\n        /* \"#utility.yul\":9633:9651   */\n      0xffffffffffffffff\n        /* \"#utility.yul\":9625:9631   */\n      dup2\n        /* \"#utility.yul\":9622:9652   */\n      gt\n        /* \"#utility.yul\":9619:9675   */\n      iszero\n      tag_190\n      jumpi\n        /* \"#utility.yul\":9655:9673   */\n      tag_191\n      tag_53\n      jump\t// in\n    tag_191:\n        /* \"#utility.yul\":9619:9675   */\n    tag_190:\n        /* \"#utility.yul\":9699:9737   */\n      tag_192\n        /* \"#utility.yul\":9731:9735   */\n      dup3\n        /* \"#utility.yul\":9725:9736   */\n      sload\n        /* \"#utility.yul\":9699:9737   */\n      tag_23\n      jump\t// in\n    tag_192:\n        /* \"#utility.yul\":9784:9851   */\n      tag_193\n        /* \"#utility.yul\":9844:9850   */\n      dup3\n        /* \"#utility.yul\":9836:9842   */\n      dup3\n        /* \"#utility.yul\":9830:9834   */\n      dup6\n        /* \"#utility.yul\":9784:9851   */\n      tag_72\n      jump\t// in\n    tag_193:\n        /* \"#utility.yul\":9878:9879   */\n      0x00\n        /* \"#utility.yul\":9902:9906   */\n      0x20\n        /* \"#utility.yul\":9889:9906   */\n      swap1\n      pop\n        /* \"#utility.yul\":9934:9936   */\n      0x1f\n        /* \"#utility.yul\":9926:9932   */\n      dup4\n        /* \"#utility.yul\":9923:9937   */\n      gt\n        /* \"#utility.yul\":9951:9952   */\n      0x01\n        /* \"#utility.yul\":9946:10564   */\n      dup2\n      eq\n      tag_195\n      jumpi\n        /* \"#utility.yul\":10608:10609   */\n      0x00\n        /* \"#utility.yul\":10625:10631   */\n      dup5\n        /* \"#utility.yul\":10622:10699   */\n      iszero\n      tag_196\n      jumpi\n        /* \"#utility.yul\":10674:10683   */\n      dup3\n        /* \"#utility.yul\":10669:10672   */\n      dup8\n        /* \"#utility.yul\":10665:10684   */\n      add\n        /* \"#utility.yul\":10659:10685   */\n      mload\n        /* \"#utility.yul\":10650:10685   */\n      swap1\n      pop\n        /* \"#utility.yul\":10622:10699   */\n    tag_196:\n        /* \"#utility.yul\":10725:10792   */\n      tag_197\n        /* \"#utility.yul\":10785:10791   */\n      dup6\n        /* \"#utility.yul\":10778:10783   */\n      dup3\n        /* \"#utility.yul\":10725:10792   */\n      tag_75\n      jump\t// in\n    tag_197:\n        /* \"#utility.yul\":10719:10723   */\n      dup7\n        /* \"#utility.yul\":10712:10793   */\n      sstore\n        /* \"#utility.yul\":10581:10803   */\n      pop\n        /* \"#utility.yul\":9916:10803   */\n      jump(tag_194)\n        /* \"#utility.yul\":9946:10564   */\n    tag_195:\n        /* \"#utility.yul\":9998:10002   */\n      0x1f\n        /* \"#utility.yul\":9994:10003   */\n      not\n        /* \"#utility.yul\":9986:9992   */\n      dup5\n        /* \"#utility.yul\":9982:10004   */\n      and\n        /* \"#utility.yul\":10032:10069   */\n      tag_198\n        /* \"#utility.yul\":10064:10068   */\n      dup7\n        /* \"#utility.yul\":10032:10069   */\n      tag_61\n      jump\t// in\n    tag_198:\n        /* \"#utility.yul\":10091:10092   */\n      0x00\n        /* \"#utility.yul\":10105:10313   */\n    tag_199:\n        /* \"#utility.yul\":10119:10126   */\n      dup3\n        /* \"#utility.yul\":10116:10117   */\n      dup2\n        /* \"#utility.yul\":10113:10127   */\n      lt\n        /* \"#utility.yul\":10105:10313   */\n      iszero\n      tag_201\n      jumpi\n        /* \"#utility.yul\":10198:10207   */\n      dup5\n        /* \"#utility.yul\":10193:10196   */\n      dup10\n        /* \"#utility.yul\":10189:10208   */\n      add\n        /* \"#utility.yul\":10183:10209   */\n      mload\n        /* \"#utility.yul\":10175:10181   */\n      dup3\n        /* \"#utility.yul\":10168:10210   */\n      sstore\n        /* \"#utility.yul\":10249:10250   */\n      0x01\n        /* \"#utility.yul\":10241:10247   */\n      dup3\n        /* \"#utility.yul\":10237:10251   */\n      add\n        /* \"#utility.yul\":10227:10251   */\n      swap2\n      pop\n        /* \"#utility.yul\":10296:10298   */\n      0x20\n        /* \"#utility.yul\":10285:10294   */\n      dup6\n        /* \"#utility.yul\":10281:10299   */\n      add\n        /* \"#utility.yul\":10268:10299   */\n      swap5\n      pop\n        /* \"#utility.yul\":10142:10146   */\n      0x20\n        /* \"#utility.yul\":10139:10140   */\n      dup2\n        /* \"#utility.yul\":10135:10147   */\n      add\n        /* \"#utility.yul\":10130:10147   */\n      swap1\n      pop\n        /* \"#utility.yul\":10105:10313   */\n      jump(tag_199)\n    tag_201:\n        /* \"#utility.yul\":10341:10347   */\n      dup7\n        /* \"#utility.yul\":10332:10339   */\n      dup4\n        /* \"#utility.yul\":10329:10348   */\n      lt\n        /* \"#utility.yul\":10326:10505   */\n      iszero\n      tag_202\n      jumpi\n        /* \"#utility.yul\":10399:10408   */\n      dup5\n        /* \"#utility.yul\":10394:10397   */\n      dup10\n        /* \"#utility.yul\":10390:10409   */\n      add\n        /* \"#utility.yul\":10384:10410   */\n      mload\n        /* \"#utility.yul\":10442:10490   */\n      tag_203\n        /* \"#utility.yul\":10484:10488   */\n      0x1f\n        /* \"#utility.yul\":10476:10482   */\n      dup10\n        /* \"#utility.yul\":10472:10489   */\n      and\n        /* \"#utility.yul\":10461:10470   */\n      dup3\n        /* \"#utility.yul\":10442:10490   */\n      tag_74\n      jump\t// in\n    tag_203:\n        /* \"#utility.yul\":10434:10440   */\n      dup4\n        /* \"#utility.yul\":10427:10491   */\n      sstore\n        /* \"#utility.yul\":10349:10505   */\n      pop\n        /* \"#utility.yul\":10326:10505   */\n    tag_202:\n        /* \"#utility.yul\":10551:10552   */\n      0x01\n        /* \"#utility.yul\":10547:10548   */\n      0x02\n        /* \"#utility.yul\":10539:10545   */\n      dup9\n        /* \"#utility.yul\":10535:10549   */\n      mul\n        /* \"#utility.yul\":10531:10553   */\n      add\n        /* \"#utility.yul\":10525:10529   */\n      dup9\n        /* \"#utility.yul\":10518:10554   */\n      sstore\n        /* \"#utility.yul\":9953:10564   */\n      pop\n      pop\n      pop\n        /* \"#utility.yul\":9916:10803   */\n    tag_194:\n      pop\n        /* \"#utility.yul\":9506:10809   */\n      pop\n      pop\n      pop\n        /* \"#utility.yul\":9414:10809   */\n      pop\n      pop\n      jump\t// out\n        /* \"#utility.yul\":10815:10995   */\n    tag_35:\n        /* \"#utility.yul\":10863:10940   */\n      0x4e487b7100000000000000000000000000000000000000000000000000000000\n        /* \"#utility.yul\":10860:10861   */\n      0x00\n        /* \"#utility.yul\":10853:10941   */\n      mstore\n        /* \"#utility.yul\":10960:10964   */\n      0x32\n        /* \"#utility.yul\":10957:10958   */\n      0x04\n        /* \"#utility.yul\":10950:10965   */\n      mstore\n        /* \"#utility.yul\":10984:10988   */\n      0x24\n        /* \"#utility.yul\":10981:10982   */\n      0x00\n        /* \"#utility.yul\":10974:10989   */\n      revert\n\n    auxdata: 0xa2646970667358221220fa6c37285c738d1f294c5cd744b127813a4232a3c6a7512a4ccdd6a1899e469464736f6c63430008160033\n}\n",
				"bytecode": {
					"linkReferences": {},
					"object": "608060405234801561000f575f80fd5b5061084f8061001d5f395ff3fe608060405234801561000f575f80fd5b506004361061003f575f3560e01c806380c9419e14610043578063b1498e2914610074578063f745630f14610090575b5f80fd5b61005d60048036038101906100589190610259565b6100ac565b60405161006b929190610328565b60405180910390f35b61008e60048036038101906100899190610482565b61016c565b005b6100aa60048036038101906100a591906104c9565b6101e2565b005b5f81815481106100ba575f80fd5b905f5260205f2090600202015f91509050805f0180546100d990610550565b80601f016020809104026020016040519081016040528092919081815260200182805461010590610550565b80156101505780601f1061012757610100808354040283529160200191610150565b820191905f5260205f20905b81548152906001019060200180831161013357829003601f168201915b505050505090806001015f9054906101000a900460ff16905082565b5f60405180604001604052808381526020015f1515815250908060018154018082558091505060019003905f5260205f2090600202015f909190919091505f820151815f0190816101bd919061071d565b506020820151816001015f6101000a81548160ff021916908315150217905550505050565b805f83815481106101f6576101f56107ec565b5b905f5260205f2090600202015f019081610210919061071d565b505050565b5f604051905090565b5f80fd5b5f80fd5b5f819050919050565b61023881610226565b8114610242575f80fd5b50565b5f813590506102538161022f565b92915050565b5f6020828403121561026e5761026d61021e565b5b5f61027b84828501610245565b91505092915050565b5f81519050919050565b5f82825260208201905092915050565b5f5b838110156102bb5780820151818401526020810190506102a0565b5f8484015250505050565b5f601f19601f8301169050919050565b5f6102e082610284565b6102ea818561028e565b93506102fa81856020860161029e565b610303816102c6565b840191505092915050565b5f8115159050919050565b6103228161030e565b82525050565b5f6040820190508181035f83015261034081856102d6565b905061034f6020830184610319565b9392505050565b5f80fd5b5f80fd5b7f4e487b71000000000000000000000000000000000000000000000000000000005f52604160045260245ffd5b610394826102c6565b810181811067ffffffffffffffff821117156103b3576103b261035e565b5b80604052505050565b5f6103c5610215565b90506103d1828261038b565b919050565b5f67ffffffffffffffff8211156103f0576103ef61035e565b5b6103f9826102c6565b9050602081019050919050565b828183375f83830152505050565b5f610426610421846103d6565b6103bc565b9050828152602081018484840111156104425761044161035a565b5b61044d848285610406565b509392505050565b5f82601f83011261046957610468610356565b5b8135610479848260208601610414565b91505092915050565b5f602082840312156104975761049661021e565b5b5f82013567ffffffffffffffff8111156104b4576104b3610222565b5b6104c084828501610455565b91505092915050565b5f80604083850312156104df576104de61021e565b5b5f6104ec85828601610245565b925050602083013567ffffffffffffffff81111561050d5761050c610222565b5b61051985828601610455565b9150509250929050565b7f4e487b71000000000000000000000000000000000000000000000000000000005f52602260045260245ffd5b5f600282049050600182168061056757607f821691505b60208210810361057a57610579610523565b5b50919050565b5f819050815f5260205f209050919050565b5f6020601f8301049050919050565b5f82821b905092915050565b5f600883026105dc7fffffffffffffffffffffffffffffffffffffffffffffffffffffffffffffffff826105a1565b6105e686836105a1565b95508019841693508086168417925050509392505050565b5f819050919050565b5f61062161061c61061784610226565b6105fe565b610226565b9050919050565b5f819050919050565b61063a83610607565b61064e61064682610628565b8484546105ad565b825550505050565b5f90565b610662610656565b61066d818484610631565b505050565b5b81811015610690576106855f8261065a565b600181019050610673565b5050565b601f8211156106d5576106a681610580565b6106af84610592565b810160208510156106be578190505b6106d26106ca85610592565b830182610672565b50505b505050565b5f82821c905092915050565b5f6106f55f19846008026106da565b1980831691505092915050565b5f61070d83836106e6565b9150826002028217905092915050565b61072682610284565b67ffffffffffffffff81111561073f5761073e61035e565b5b6107498254610550565b610754828285610694565b5f60209050601f831160018114610785575f8415610773578287015190505b61077d8582610702565b8655506107e4565b601f19841661079386610580565b5f5b828110156107ba57848901518255600182019150602085019450602081019050610795565b868310156107d757848901516107d3601f8916826106e6565b8355505b6001600288020188555050505b505050505050565b7f4e487b71000000000000000000000000000000000000000000000000000000005f52603260045260245ffdfea2646970667358221220fa6c37285c738d1f294c5cd744b127813a4232a3c6a7512a4ccdd6a1899e469464736f6c63430008160033",
					"opcodes": "PUSH1 0x80 PUSH1 0x40 MSTORE CALLVALUE DUP1 ISZERO PUSH2 0xF JUMPI PUSH0 DUP1 REVERT JUMPDEST POP PUSH2 0x84F DUP1 PUSH2 0x1D PUSH0 CODECOPY PUSH0 RETURN INVALID PUSH1 0x80 PUSH1 0x40 MSTORE CALLVALUE DUP1 ISZERO PUSH2 0xF JUMPI PUSH0 DUP1 REVERT JUMPDEST POP PUSH1 0x4 CALLDATASIZE LT PUSH2 0x3F JUMPI PUSH0 CALLDATALOAD PUSH1 0xE0 SHR DUP1 PUSH4 0x80C9419E EQ PUSH2 0x43 JUMPI DUP1 PUSH4 0xB1498E29 EQ PUSH2 0x74 JUMPI DUP1 PUSH4 0xF745630F EQ PUSH2 0x90 JUMPI JUMPDEST PUSH0 DUP1 REVERT JUMPDEST PUSH2 0x5D PUSH1 0x4 DUP1 CALLDATASIZE SUB DUP2 ADD SWAP1 PUSH2 0x58 SWAP2 SWAP1 PUSH2 0x259 JUMP JUMPDEST PUSH2 0xAC JUMP JUMPDEST PUSH1 0x40 MLOAD PUSH2 0x6B SWAP3 SWAP2 SWAP1 PUSH2 0x328 JUMP JUMPDEST PUSH1 0x40 MLOAD DUP1 SWAP2 SUB SWAP1 RETURN JUMPDEST PUSH2 0x8E PUSH1 0x4 DUP1 CALLDATASIZE SUB DUP2 ADD SWAP1 PUSH2 0x89 SWAP2 SWAP1 PUSH2 0x482 JUMP JUMPDEST PUSH2 0x16C JUMP JUMPDEST STOP JUMPDEST PUSH2 0xAA PUSH1 0x4 DUP1 CALLDATASIZE SUB DUP2 ADD SWAP1 PUSH2 0xA5 SWAP2 SWAP1 PUSH2 0x4C9 JUMP JUMPDEST PUSH2 0x1E2 JUMP JUMPDEST STOP JUMPDEST PUSH0 DUP2 DUP2 SLOAD DUP2 LT PUSH2 0xBA JUMPI PUSH0 DUP1 REVERT JUMPDEST SWAP1 PUSH0 MSTORE PUSH1 0x20 PUSH0 KECCAK256 SWAP1 PUSH1 0x2 MUL ADD PUSH0 SWAP2 POP SWAP1 POP DUP1 PUSH0 ADD DUP1 SLOAD PUSH2 0xD9 SWAP1 PUSH2 0x550 JUMP JUMPDEST DUP1 PUSH1 0x1F ADD PUSH1 0x20 DUP1 SWAP2 DIV MUL PUSH1 0x20 ADD PUSH1 0x40 MLOAD SWAP1 DUP2 ADD PUSH1 0x40 MSTORE DUP1 SWAP3 SWAP2 SWAP1 DUP2 DUP2 MSTORE PUSH1 0x20 ADD DUP3 DUP1 SLOAD PUSH2 0x105 SWAP1 PUSH2 0x550 JUMP JUMPDEST DUP1 ISZERO PUSH2 0x150 JUMPI DUP1 PUSH1 0x1F LT PUSH2 0x127 JUMPI PUSH2 0x100 DUP1 DUP4 SLOAD DIV MUL DUP4 MSTORE SWAP2 PUSH1 0x20 ADD SWAP2 PUSH2 0x150 JUMP JUMPDEST DUP3 ADD SWAP2 SWAP1 PUSH0 MSTORE PUSH1 0x20 PUSH0 KECCAK256 SWAP1 JUMPDEST DUP2 SLOAD DUP2 MSTORE SWAP1 PUSH1 0x1 ADD SWAP1 PUSH1 0x20 ADD DUP1 DUP4 GT PUSH2 0x133 JUMPI DUP3 SWAP1 SUB PUSH1 0x1F AND DUP3 ADD SWAP2 JUMPDEST POP POP POP POP POP SWAP1 DUP1 PUSH1 0x1 ADD PUSH0 SWAP1 SLOAD SWAP1 PUSH2 0x100 EXP SWAP1 DIV PUSH1 0xFF AND SWAP1 POP DUP3 JUMP JUMPDEST PUSH0 PUSH1 0x40 MLOAD DUP1 PUSH1 0x40 ADD PUSH1 0x40 MSTORE DUP1 DUP4 DUP2 MSTORE PUSH1 0x20 ADD PUSH0 ISZERO ISZERO DUP2 MSTORE POP SWAP1 DUP1 PUSH1 0x1 DUP2 SLOAD ADD DUP1 DUP3 SSTORE DUP1 SWAP2 POP POP PUSH1 0x1 SWAP1 SUB SWAP1 PUSH0 MSTORE PUSH1 0x20 PUSH0 KECCAK256 SWAP1 PUSH1 0x2 MUL ADD PUSH0 SWAP1 SWAP2 SWAP1 SWAP2 SWAP1 SWAP2 POP PUSH0 DUP3 ADD MLOAD DUP2 PUSH0 ADD SWAP1 DUP2 PUSH2 0x1BD SWAP2 SWAP1 PUSH2 0x71D JUMP JUMPDEST POP PUSH1 0x20 DUP3 ADD MLOAD DUP2 PUSH1 0x1 ADD PUSH0 PUSH2 0x100 EXP DUP2 SLOAD DUP2 PUSH1 0xFF MUL NOT AND SWAP1 DUP4 ISZERO ISZERO MUL OR SWAP1 SSTORE POP POP POP POP JUMP JUMPDEST DUP1 PUSH0 DUP4 DUP2 SLOAD DUP2 LT PUSH2 0x1F6 JUMPI PUSH2 0x1F5 PUSH2 0x7EC JUMP JUMPDEST JUMPDEST SWAP1 PUSH0 MSTORE PUSH1 0x20 PUSH0 KECCAK256 SWAP1 PUSH1 0x2 MUL ADD PUSH0 ADD SWAP1 DUP2 PUSH2 0x210 SWAP2 SWAP1 PUSH2 0x71D JUMP JUMPDEST POP POP POP JUMP JUMPDEST PUSH0 PUSH1 0x40 MLOAD SWAP1 POP SWAP1 JUMP JUMPDEST PUSH0 DUP1 REVERT JUMPDEST PUSH0 DUP1 REVERT JUMPDEST PUSH0 DUP2 SWAP1 POP SWAP2 SWAP1 POP JUMP JUMPDEST PUSH2 0x238 DUP2 PUSH2 0x226 JUMP JUMPDEST DUP2 EQ PUSH2 0x242 JUMPI PUSH0 DUP1 REVERT JUMPDEST POP JUMP JUMPDEST PUSH0 DUP2 CALLDATALOAD SWAP1 POP PUSH2 0x253 DUP2 PUSH2 0x22F JUMP JUMPDEST SWAP3 SWAP2 POP POP JUMP JUMPDEST PUSH0 PUSH1 0x20 DUP3 DUP5 SUB SLT ISZERO PUSH2 0x26E JUMPI PUSH2 0x26D PUSH2 0x21E JUMP JUMPDEST JUMPDEST PUSH0 PUSH2 0x27B DUP5 DUP3 DUP6 ADD PUSH2 0x245 JUMP JUMPDEST SWAP2 POP POP SWAP3 SWAP2 POP POP JUMP JUMPDEST PUSH0 DUP2 MLOAD SWAP1 POP SWAP2 SWAP1 POP JUMP JUMPDEST PUSH0 DUP3 DUP3 MSTORE PUSH1 0x20 DUP3 ADD SWAP1 POP SWAP3 SWAP2 POP POP JUMP JUMPDEST PUSH0 JUMPDEST DUP4 DUP2 LT ISZERO PUSH2 0x2BB JUMPI DUP1 DUP3 ADD MLOAD DUP2 DUP5 ADD MSTORE PUSH1 0x20 DUP2 ADD SWAP1 POP PUSH2 0x2A0 JUMP JUMPDEST PUSH0 DUP5 DUP5 ADD MSTORE POP POP POP POP JUMP JUMPDEST PUSH0 PUSH1 0x1F NOT PUSH1 0x1F DUP4 ADD AND SWAP1 POP SWAP2 SWAP1 POP JUMP JUMPDEST PUSH0 PUSH2 0x2E0 DUP3 PUSH2 0x284 JUMP JUMPDEST PUSH2 0x2EA DUP2 DUP6 PUSH2 0x28E JUMP JUMPDEST SWAP4 POP PUSH2 0x2FA DUP2 DUP6 PUSH1 0x20 DUP7 ADD PUSH2 0x29E JUMP JUMPDEST PUSH2 0x303 DUP2 PUSH2 0x2C6 JUMP JUMPDEST DUP5 ADD SWAP2 POP POP SWAP3 SWAP2 POP POP JUMP JUMPDEST PUSH0 DUP2 ISZERO ISZERO SWAP1 POP SWAP2 SWAP1 POP JUMP JUMPDEST PUSH2 0x322 DUP2 PUSH2 0x30E JUMP JUMPDEST DUP3 MSTORE POP POP JUMP JUMPDEST PUSH0 PUSH1 0x40 DUP3 ADD SWAP1 POP DUP2 DUP2 SUB PUSH0 DUP4 ADD MSTORE PUSH2 0x340 DUP2 DUP6 PUSH2 0x2D6 JUMP JUMPDEST SWAP1 POP PUSH2 0x34F PUSH1 0x20 DUP4 ADD DUP5 PUSH2 0x319 JUMP JUMPDEST SWAP4 SWAP3 POP POP POP JUMP JUMPDEST PUSH0 DUP1 REVERT JUMPDEST PUSH0 DUP1 REVERT JUMPDEST PUSH32 0x4E487B7100000000000000000000000000000000000000000000000000000000 PUSH0 MSTORE PUSH1 0x41 PUSH1 0x4 MSTORE PUSH1 0x24 PUSH0 REVERT JUMPDEST PUSH2 0x394 DUP3 PUSH2 0x2C6 JUMP JUMPDEST DUP2 ADD DUP2 DUP2 LT PUSH8 0xFFFFFFFFFFFFFFFF DUP3 GT OR ISZERO PUSH2 0x3B3 JUMPI PUSH2 0x3B2 PUSH2 0x35E JUMP JUMPDEST JUMPDEST DUP1 PUSH1 0x40 MSTORE POP POP POP JUMP JUMPDEST PUSH0 PUSH2 0x3C5 PUSH2 0x215 JUMP JUMPDEST SWAP1 POP PUSH2 0x3D1 DUP3 DUP3 PUSH2 0x38B JUMP JUMPDEST SWAP2 SWAP1 POP JUMP JUMPDEST PUSH0 PUSH8 0xFFFFFFFFFFFFFFFF DUP3 GT ISZERO PUSH2 0x3F0 JUMPI PUSH2 0x3EF PUSH2 0x35E JUMP JUMPDEST JUMPDEST PUSH2 0x3F9 DUP3 PUSH2 0x2C6 JUMP JUMPDEST SWAP1 POP PUSH1 0x20 DUP2 ADD SWAP1 POP SWAP2 SWAP1 POP JUMP JUMPDEST DUP3 DUP2 DUP4 CALLDATACOPY PUSH0 DUP4 DUP4 ADD MSTORE POP POP POP JUMP JUMPDEST PUSH0 PUSH2 0x426 PUSH2 0x421 DUP5 PUSH2 0x3D6 JUMP JUMPDEST PUSH2 0x3BC JUMP JUMPDEST SWAP1 POP DUP3 DUP2 MSTORE PUSH1 0x20 DUP2 ADD DUP5 DUP5 DUP5 ADD GT ISZERO PUSH2 0x442 JUMPI PUSH2 0x441 PUSH2 0x35A JUMP JUMPDEST JUMPDEST PUSH2 0x44D DUP5 DUP3 DUP6 PUSH2 0x406 JUMP JUMPDEST POP SWAP4 SWAP3 POP POP POP JUMP JUMPDEST PUSH0 DUP3 PUSH1 0x1F DUP4 ADD SLT PUSH2 0x469 JUMPI PUSH2 0x468 PUSH2 0x356 JUMP JUMPDEST JUMPDEST DUP2 CALLDATALOAD PUSH2 0x479 DUP5 DUP3 PUSH1 0x20 DUP7 ADD PUSH2 0x414 JUMP JUMPDEST SWAP2 POP POP SWAP3 SWAP2 POP POP JUMP JUMPDEST PUSH0 PUSH1 0x20 DUP3 DUP5 SUB SLT ISZERO PUSH2 0x497 JUMPI PUSH2 0x496 PUSH2 0x21E JUMP JUMPDEST JUMPDEST PUSH0 DUP3 ADD CALLDATALOAD PUSH8 0xFFFFFFFFFFFFFFFF DUP2 GT ISZERO PUSH2 0x4B4 JUMPI PUSH2 0x4B3 PUSH2 0x222 JUMP JUMPDEST JUMPDEST PUSH2 0x4C0 DUP5 DUP3 DUP6 ADD PUSH2 0x455 JUMP JUMPDEST SWAP2 POP POP SWAP3 SWAP2 POP POP JUMP JUMPDEST PUSH0 DUP1 PUSH1 0x40 DUP4 DUP6 SUB SLT ISZERO PUSH2 0x4DF JUMPI PUSH2 0x4DE PUSH2 0x21E JUMP JUMPDEST JUMPDEST PUSH0 PUSH2 0x4EC DUP6 DUP3 DUP7 ADD PUSH2 0x245 JUMP JUMPDEST SWAP3 POP POP PUSH1 0x20 DUP4 ADD CALLDATALOAD PUSH8 0xFFFFFFFFFFFFFFFF DUP2 GT ISZERO PUSH2 0x50D JUMPI PUSH2 0x50C PUSH2 0x222 JUMP JUMPDEST JUMPDEST PUSH2 0x519 DUP6 DUP3 DUP7 ADD PUSH2 0x455 JUMP JUMPDEST SWAP2 POP POP SWAP3 POP SWAP3 SWAP1 POP JUMP JUMPDEST PUSH32 0x4E487B7100000000000000000000000000000000000000000000000000000000 PUSH0 MSTORE PUSH1 0x22 PUSH1 0x4 MSTORE PUSH1 0x24 PUSH0 REVERT JUMPDEST PUSH0 PUSH1 0x2 DUP3 DIV SWAP1 POP PUSH1 0x1 DUP3 AND DUP1 PUSH2 0x567 JUMPI PUSH1 0x7F DUP3 AND SWAP2 POP JUMPDEST PUSH1 0x20 DUP3 LT DUP2 SUB PUSH2 0x57A JUMPI PUSH2 0x579 PUSH2 0x523 JUMP JUMPDEST JUMPDEST POP SWAP2 SWAP1 POP JUMP JUMPDEST PUSH0 DUP2 SWAP1 POP DUP2 PUSH0 MSTORE PUSH1 0x20 PUSH0 KECCAK256 SWAP1 POP SWAP2 SWAP1 POP JUMP JUMPDEST PUSH0 PUSH1 0x20 PUSH1 0x1F DUP4 ADD DIV SWAP1 POP SWAP2 SWAP1 POP JUMP JUMPDEST PUSH0 DUP3 DUP3 SHL SWAP1 POP SWAP3 SWAP2 POP POP JUMP JUMPDEST PUSH0 PUSH1 0x8 DUP4 MUL PUSH2 0x5DC PUSH32 0xFFFFFFFFFFFFFFFFFFFFFFFFFFFFFFFFFFFFFFFFFFFFFFFFFFFFFFFFFFFFFFFF DUP3 PUSH2 0x5A1 JUMP JUMPDEST PUSH2 0x5E6 DUP7 DUP4 PUSH2 0x5A1 JUMP JUMPDEST SWAP6 POP DUP1 NOT DUP5 AND SWAP4 POP DUP1 DUP7 AND DUP5 OR SWAP3 POP POP POP SWAP4 SWAP3 POP POP POP JUMP JUMPDEST PUSH0 DUP2 SWAP1 POP SWAP2 SWAP1 POP JUMP JUMPDEST PUSH0 PUSH2 0x621 PUSH2 0x61C PUSH2 0x617 DUP5 PUSH2 0x226 JUMP JUMPDEST PUSH2 0x5FE JUMP JUMPDEST PUSH2 0x226 JUMP JUMPDEST SWAP1 POP SWAP2 SWAP1 POP JUMP JUMPDEST PUSH0 DUP2 SWAP1 POP SWAP2 SWAP1 POP JUMP JUMPDEST PUSH2 0x63A DUP4 PUSH2 0x607 JUMP JUMPDEST PUSH2 0x64E PUSH2 0x646 DUP3 PUSH2 0x628 JUMP JUMPDEST DUP5 DUP5 SLOAD PUSH2 0x5AD JUMP JUMPDEST DUP3 SSTORE POP POP POP POP JUMP JUMPDEST PUSH0 SWAP1 JUMP JUMPDEST PUSH2 0x662 PUSH2 0x656 JUMP JUMPDEST PUSH2 0x66D DUP2 DUP5 DUP5 PUSH2 0x631 JUMP JUMPDEST POP POP POP JUMP JUMPDEST JUMPDEST DUP2 DUP2 LT ISZERO PUSH2 0x690 JUMPI PUSH2 0x685 PUSH0 DUP3 PUSH2 0x65A JUMP JUMPDEST PUSH1 0x1 DUP2 ADD SWAP1 POP PUSH2 0x673 JUMP JUMPDEST POP POP JUMP JUMPDEST PUSH1 0x1F DUP3 GT ISZERO PUSH2 0x6D5 JUMPI PUSH2 0x6A6 DUP2 PUSH2 0x580 JUMP JUMPDEST PUSH2 0x6AF DUP5 PUSH2 0x592 JUMP JUMPDEST DUP2 ADD PUSH1 0x20 DUP6 LT ISZERO PUSH2 0x6BE JUMPI DUP2 SWAP1 POP JUMPDEST PUSH2 0x6D2 PUSH2 0x6CA DUP6 PUSH2 0x592 JUMP JUMPDEST DUP4 ADD DUP3 PUSH2 0x672 JUMP JUMPDEST POP POP JUMPDEST POP POP POP JUMP JUMPDEST PUSH0 DUP3 DUP3 SHR SWAP1 POP SWAP3 SWAP2 POP POP JUMP JUMPDEST PUSH0 PUSH2 0x6F5 PUSH0 NOT DUP5 PUSH1 0x8 MUL PUSH2 0x6DA JUMP JUMPDEST NOT DUP1 DUP4 AND SWAP2 POP POP SWAP3 SWAP2 POP POP JUMP JUMPDEST PUSH0 PUSH2 0x70D DUP4 DUP4 PUSH2 0x6E6 JUMP JUMPDEST SWAP2 POP DUP3 PUSH1 0x2 MUL DUP3 OR SWAP1 POP SWAP3 SWAP2 POP POP JUMP JUMPDEST PUSH2 0x726 DUP3 PUSH2 0x284 JUMP JUMPDEST PUSH8 0xFFFFFFFFFFFFFFFF DUP2 GT ISZERO PUSH2 0x73F JUMPI PUSH2 0x73E PUSH2 0x35E JUMP JUMPDEST JUMPDEST PUSH2 0x749 DUP3 SLOAD PUSH2 0x550 JUMP JUMPDEST PUSH2 0x754 DUP3 DUP3 DUP6 PUSH2 0x694 JUMP JUMPDEST PUSH0 PUSH1 0x20 SWAP1 POP PUSH1 0x1F DUP4 GT PUSH1 0x1 DUP2 EQ PUSH2 0x785 JUMPI PUSH0 DUP5 ISZERO PUSH2 0x773 JUMPI DUP3 DUP8 ADD MLOAD SWAP1 POP JUMPDEST PUSH2 0x77D DUP6 DUP3 PUSH2 0x702 JUMP JUMPDEST DUP7 SSTORE POP PUSH2 0x7E4 JUMP JUMPDEST PUSH1 0x1F NOT DUP5 AND PUSH2 0x793 DUP7 PUSH2 0x580 JUMP JUMPDEST PUSH0 JUMPDEST DUP3 DUP2 LT ISZERO PUSH2 0x7BA JUMPI DUP5 DUP10 ADD MLOAD DUP3 SSTORE PUSH1 0x1 DUP3 ADD SWAP2 POP PUSH1 0x20 DUP6 ADD SWAP5 POP PUSH1 0x20 DUP2 ADD SWAP1 POP PUSH2 0x795 JUMP JUMPDEST DUP7 DUP4 LT ISZERO PUSH2 0x7D7 JUMPI DUP5 DUP10 ADD MLOAD PUSH2 0x7D3 PUSH1 0x1F DUP10 AND DUP3 PUSH2 0x6E6 JUMP JUMPDEST DUP4 SSTORE POP JUMPDEST PUSH1 0x1 PUSH1 0x2 DUP9 MUL ADD DUP9 SSTORE POP POP POP JUMPDEST POP POP POP POP POP POP JUMP JUMPDEST PUSH32 0x4E487B7100000000000000000000000000000000000000000000000000000000 PUSH0 MSTORE PUSH1 0x32 PUSH1 0x4 MSTORE PUSH1 0x24 PUSH0 REVERT INVALID LOG2 PUSH5 0x6970667358 0x22 SLT KECCAK256 STATICCALL PUSH13 0x37285C738D1F294C5CD744B127 DUP2 GASPRICE TIMESTAMP ORIGIN LOG3 0xC6 0xA7 MLOAD 0x2A 0x4C 0xCD 0xD6 LOG1 DUP10 SWAP15 CHAINID SWAP5 PUSH5 0x736F6C6343 STOP ADDMOD AND STOP CALLER "
				},
				"gasEstimates": {
					"creation": {
						"codeDepositCost": "425400",
						"executionCost": "459",
						"totalCost": "425859"
					},
					"external": {
						"insert(string)": "infinite",
						"list(uint256)": "infinite",
						"update(uint256,string)": "infinite"
					}
				},
				"methodIdentifiers": {
					"insert(string)": "b1498e29",
					"list(uint256)": "80c9419e",
					"update(uint256,string)": "f745630f"
				}
			},
			"storageLayout": {
				"storage": [
					{
						"astId": 10,
						"contract": "todo.sol:todo",
						"label": "list",
						"offset": 0,
						"slot": "0",
						"type": "t_array(t_struct(zara)6_storage)dyn_storage"
					}
				],
				"types": {
					"t_array(t_struct(zara)6_storage)dyn_storage": {
						"base": "t_struct(zara)6_storage",
						"encoding": "dynamic_array",
						"label": "struct todo.zara[]",
						"numberOfBytes": "32"
					},
					"t_bool": {
						"encoding": "inplace",
						"label": "bool",
						"numberOfBytes": "1"
					},
					"t_string_storage": {
						"encoding": "bytes",
						"label": "string",
						"numberOfBytes": "32"
					},
					"t_struct(zara)6_storage": {
						"encoding": "inplace",
						"label": "struct todo.zara",
						"members": [
							{
								"astId": 3,
								"contract": "todo.sol:todo",
								"label": "title",
								"offset": 0,
								"slot": "0",
								"type": "t_string_storage"
							},
							{
								"astId": 5,
								"contract": "todo.sol:todo",
								"label": "completed",
								"offset": 0,
								"slot": "1",
								"type": "t_bool"
							}
						],
						"numberOfBytes": "64"
					}
				}
			},
			"userdoc": {
				"kind": "user",
				"methods": {},
				"version": 1
			}
		}
	}
}