{
	"assig.sol": {
		"sendEther": {
			"abi": [
				{
					"inputs": [
						{
							"internalType": "address payable",
							"name": "to",
							"type": "address"
						},
						{
							"internalType": "uint256",
							"name": "amount",
							"type": "uint256"
						}
					],
					"name": "sendViaTransfer",
					"outputs": [],
					"stateMutability": "payable",
					"type": "function"
				},
				{
					"inputs": [
						{
							"internalType": "address payable",
							"name": "_to",
							"type": "address"
						}
					],
					"name": "sendviasend",
					"outputs": [],
					"stateMutability": "payable",
					"type": "function"
				},
				{
					"stateMutability": "payable",
					"type": "receive"
				}
			],
			"devdoc": {
				"kind": "dev",
				"methods": {},
				"version": 1
			},
			"evm": {
				"assembly": "    /* \"assig.sol\":226:485  contract sendEther{... */\n  mstore(0x40, 0x80)\n  callvalue\n  dup1\n  iszero\n  tag_1\n  jumpi\n  0x00\n  dup1\n  revert\ntag_1:\n  pop\n  dataSize(sub_0)\n  dup1\n  dataOffset(sub_0)\n  0x00\n  codecopy\n  0x00\n  return\nstop\n\nsub_0: assembly {\n        /* \"assig.sol\":226:485  contract sendEther{... */\n      mstore(0x40, 0x80)\n      jumpi(tag_1, lt(calldatasize, 0x04))\n      shr(0xe0, calldataload(0x00))\n      dup1\n      0x764a5d4c\n      eq\n      tag_3\n      jumpi\n      dup1\n      0xd27f8e66\n      eq\n      tag_4\n      jumpi\n      jump(tag_2)\n    tag_1:\n      jumpi(tag_2, calldatasize)\n      stop\n    tag_2:\n      0x00\n      dup1\n      revert\n        /* \"assig.sol\":408:482  function sendviasend(address payable _to) public payable{... */\n    tag_3:\n      tag_7\n      0x04\n      dup1\n      calldatasize\n      sub\n      dup2\n      add\n      swap1\n      tag_8\n      swap2\n      swap1\n      tag_9\n      jump\t// in\n    tag_8:\n      tag_10\n      jump\t// in\n    tag_7:\n      stop\n        /* \"assig.sol\":291:402  function sendViaTransfer(address payable to, uint amount) public payable {... */\n    tag_4:\n      tag_11\n      0x04\n      dup1\n      calldatasize\n      sub\n      dup2\n      add\n      swap1\n      tag_12\n      swap2\n      swap1\n      tag_13\n      jump\t// in\n    tag_12:\n      tag_14\n      jump\t// in\n    tag_11:\n      stop\n        /* \"assig.sol\":408:482  function sendviasend(address payable _to) public payable{... */\n    tag_10:\n      pop\n      jump\t// out\n        /* \"assig.sol\":291:402  function sendViaTransfer(address payable to, uint amount) public payable {... */\n    tag_14:\n        /* \"assig.sol\":375:377  to */\n      dup2\n        /* \"assig.sol\":375:386  to.transfer */\n      0xffffffffffffffffffffffffffffffffffffffff\n      and\n        /* \"assig.sol\":375:394  to.transfer(amount) */\n      0x08fc\n        /* \"assig.sol\":387:393  amount */\n      dup3\n        /* \"assig.sol\":375:394  to.transfer(amount) */\n      swap1\n      dup2\n      iszero\n      mul\n      swap1\n      mload(0x40)\n      0x00\n      mload(0x40)\n      dup1\n      dup4\n      sub\n      dup2\n      dup6\n      dup9\n      dup9\n      call\n      swap4\n      pop\n      pop\n      pop\n      pop\n      iszero\n      dup1\n      iszero\n      tag_18\n      jumpi\n      returndatasize\n      0x00\n      dup1\n      returndatacopy\n      revert(0x00, returndatasize)\n    tag_18:\n      pop\n        /* \"assig.sol\":291:402  function sendViaTransfer(address payable to, uint amount) public payable {... */\n      pop\n      pop\n      jump\t// out\n        /* \"#utility.yul\":88:205   */\n    tag_20:\n        /* \"#utility.yul\":197:198   */\n      0x00\n        /* \"#utility.yul\":194:195   */\n      dup1\n        /* \"#utility.yul\":187:199   */\n      revert\n        /* \"#utility.yul\":334:460   */\n    tag_22:\n        /* \"#utility.yul\":371:378   */\n      0x00\n        /* \"#utility.yul\":411:453   */\n      0xffffffffffffffffffffffffffffffffffffffff\n        /* \"#utility.yul\":404:409   */\n      dup3\n        /* \"#utility.yul\":400:454   */\n      and\n        /* \"#utility.yul\":389:454   */\n      swap1\n      pop\n        /* \"#utility.yul\":334:460   */\n      swap2\n      swap1\n      pop\n      jump\t// out\n        /* \"#utility.yul\":466:570   */\n    tag_23:\n        /* \"#utility.yul\":511:518   */\n      0x00\n        /* \"#utility.yul\":540:564   */\n      tag_35\n        /* \"#utility.yul\":558:563   */\n      dup3\n        /* \"#utility.yul\":540:564   */\n      tag_22\n      jump\t// in\n    tag_35:\n        /* \"#utility.yul\":529:564   */\n      swap1\n      pop\n        /* \"#utility.yul\":466:570   */\n      swap2\n      swap1\n      pop\n      jump\t// out\n        /* \"#utility.yul\":576:714   */\n    tag_24:\n        /* \"#utility.yul\":657:689   */\n      tag_37\n        /* \"#utility.yul\":683:688   */\n      dup2\n        /* \"#utility.yul\":657:689   */\n      tag_23\n      jump\t// in\n    tag_37:\n        /* \"#utility.yul\":650:655   */\n      dup2\n        /* \"#utility.yul\":647:690   */\n      eq\n        /* \"#utility.yul\":637:708   */\n      tag_38\n      jumpi\n        /* \"#utility.yul\":704:705   */\n      0x00\n        /* \"#utility.yul\":701:702   */\n      dup1\n        /* \"#utility.yul\":694:706   */\n      revert\n        /* \"#utility.yul\":637:708   */\n    tag_38:\n        /* \"#utility.yul\":576:714   */\n      pop\n      jump\t// out\n        /* \"#utility.yul\":720:875   */\n    tag_25:\n        /* \"#utility.yul\":774:779   */\n      0x00\n        /* \"#utility.yul\":812:818   */\n      dup2\n        /* \"#utility.yul\":799:819   */\n      calldataload\n        /* \"#utility.yul\":790:819   */\n      swap1\n      pop\n        /* \"#utility.yul\":828:869   */\n      tag_40\n        /* \"#utility.yul\":863:868   */\n      dup2\n        /* \"#utility.yul\":828:869   */\n      tag_24\n      jump\t// in\n    tag_40:\n        /* \"#utility.yul\":720:875   */\n      swap3\n      swap2\n      pop\n      pop\n      jump\t// out\n        /* \"#utility.yul\":881:1226   */\n    tag_9:\n        /* \"#utility.yul\":948:954   */\n      0x00\n        /* \"#utility.yul\":997:999   */\n      0x20\n        /* \"#utility.yul\":985:994   */\n      dup3\n        /* \"#utility.yul\":976:983   */\n      dup5\n        /* \"#utility.yul\":972:995   */\n      sub\n        /* \"#utility.yul\":968:1000   */\n      slt\n        /* \"#utility.yul\":965:1084   */\n      iszero\n      tag_42\n      jumpi\n        /* \"#utility.yul\":1003:1082   */\n      tag_43\n      tag_20\n      jump\t// in\n    tag_43:\n        /* \"#utility.yul\":965:1084   */\n    tag_42:\n        /* \"#utility.yul\":1123:1124   */\n      0x00\n        /* \"#utility.yul\":1148:1209   */\n      tag_44\n        /* \"#utility.yul\":1201:1208   */\n      dup5\n        /* \"#utility.yul\":1192:1198   */\n      dup3\n        /* \"#utility.yul\":1181:1190   */\n      dup6\n        /* \"#utility.yul\":1177:1199   */\n      add\n        /* \"#utility.yul\":1148:1209   */\n      tag_25\n      jump\t// in\n    tag_44:\n        /* \"#utility.yul\":1138:1209   */\n      swap2\n      pop\n        /* \"#utility.yul\":1094:1219   */\n      pop\n        /* \"#utility.yul\":881:1226   */\n      swap3\n      swap2\n      pop\n      pop\n      jump\t// out\n        /* \"#utility.yul\":1232:1309   */\n    tag_26:\n        /* \"#utility.yul\":1269:1276   */\n      0x00\n        /* \"#utility.yul\":1298:1303   */\n      dup2\n        /* \"#utility.yul\":1287:1303   */\n      swap1\n      pop\n        /* \"#utility.yul\":1232:1309   */\n      swap2\n      swap1\n      pop\n      jump\t// out\n        /* \"#utility.yul\":1315:1437   */\n    tag_27:\n        /* \"#utility.yul\":1388:1412   */\n      tag_47\n        /* \"#utility.yul\":1406:1411   */\n      dup2\n        /* \"#utility.yul\":1388:1412   */\n      tag_26\n      jump\t// in\n    tag_47:\n        /* \"#utility.yul\":1381:1386   */\n      dup2\n        /* \"#utility.yul\":1378:1413   */\n      eq\n        /* \"#utility.yul\":1368:1431   */\n      tag_48\n      jumpi\n        /* \"#utility.yul\":1427:1428   */\n      0x00\n        /* \"#utility.yul\":1424:1425   */\n      dup1\n        /* \"#utility.yul\":1417:1429   */\n      revert\n        /* \"#utility.yul\":1368:1431   */\n    tag_48:\n        /* \"#utility.yul\":1315:1437   */\n      pop\n      jump\t// out\n        /* \"#utility.yul\":1443:1582   */\n    tag_28:\n        /* \"#utility.yul\":1489:1494   */\n      0x00\n        /* \"#utility.yul\":1527:1533   */\n      dup2\n        /* \"#utility.yul\":1514:1534   */\n      calldataload\n        /* \"#utility.yul\":1505:1534   */\n      swap1\n      pop\n        /* \"#utility.yul\":1543:1576   */\n      tag_50\n        /* \"#utility.yul\":1570:1575   */\n      dup2\n        /* \"#utility.yul\":1543:1576   */\n      tag_27\n      jump\t// in\n    tag_50:\n        /* \"#utility.yul\":1443:1582   */\n      swap3\n      swap2\n      pop\n      pop\n      jump\t// out\n        /* \"#utility.yul\":1588:2078   */\n    tag_13:\n        /* \"#utility.yul\":1664:1670   */\n      0x00\n        /* \"#utility.yul\":1672:1678   */\n      dup1\n        /* \"#utility.yul\":1721:1723   */\n      0x40\n        /* \"#utility.yul\":1709:1718   */\n      dup4\n        /* \"#utility.yul\":1700:1707   */\n      dup6\n        /* \"#utility.yul\":1696:1719   */\n      sub\n        /* \"#utility.yul\":1692:1724   */\n      slt\n        /* \"#utility.yul\":1689:1808   */\n      iszero\n      tag_52\n      jumpi\n        /* \"#utility.yul\":1727:1806   */\n      tag_53\n      tag_20\n      jump\t// in\n    tag_53:\n        /* \"#utility.yul\":1689:1808   */\n    tag_52:\n        /* \"#utility.yul\":1847:1848   */\n      0x00\n        /* \"#utility.yul\":1872:1933   */\n      tag_54\n        /* \"#utility.yul\":1925:1932   */\n      dup6\n        /* \"#utility.yul\":1916:1922   */\n      dup3\n        /* \"#utility.yul\":1905:1914   */\n      dup7\n        /* \"#utility.yul\":1901:1923   */\n      add\n        /* \"#utility.yul\":1872:1933   */\n      tag_25\n      jump\t// in\n    tag_54:\n        /* \"#utility.yul\":1862:1933   */\n      swap3\n      pop\n        /* \"#utility.yul\":1818:1943   */\n      pop\n        /* \"#utility.yul\":1982:1984   */\n      0x20\n        /* \"#utility.yul\":2008:2061   */\n      tag_55\n        /* \"#utility.yul\":2053:2060   */\n      dup6\n        /* \"#utility.yul\":2044:2050   */\n      dup3\n        /* \"#utility.yul\":2033:2042   */\n      dup7\n        /* \"#utility.yul\":2029:2051   */\n      add\n        /* \"#utility.yul\":2008:2061   */\n      tag_28\n      jump\t// in\n    tag_55:\n        /* \"#utility.yul\":1998:2061   */\n      swap2\n      pop\n        /* \"#utility.yul\":1953:2071   */\n      pop\n        /* \"#utility.yul\":1588:2078   */\n      swap3\n      pop\n      swap3\n      swap1\n      pop\n      jump\t// out\n\n    auxdata: 0xa26469706673582212203ebbfb0e44d854ec6466d8b8b89ba189d5594a904498a1d05d4613915d2986d964736f6c63430008160033\n}\n",
				"bytecode": {
					"linkReferences": {},
					"object": "608060405234801561000f575f80fd5b506101ea8061001d5f395ff3fe60806040526004361061002c575f3560e01c8063764a5d4c14610037578063d27f8e661461005357610033565b3661003357005b5f80fd5b610051600480360381019061004c9190610118565b61006f565b005b61006d60048036038101906100689190610176565b610072565b005b50565b8173ffffffffffffffffffffffffffffffffffffffff166108fc8290811502906040515f60405180830381858888f193505050501580156100b5573d5f803e3d5ffd5b505050565b5f80fd5b5f73ffffffffffffffffffffffffffffffffffffffff82169050919050565b5f6100e7826100be565b9050919050565b6100f7816100dd565b8114610101575f80fd5b50565b5f81359050610112816100ee565b92915050565b5f6020828403121561012d5761012c6100ba565b5b5f61013a84828501610104565b91505092915050565b5f819050919050565b61015581610143565b811461015f575f80fd5b50565b5f813590506101708161014c565b92915050565b5f806040838503121561018c5761018b6100ba565b5b5f61019985828601610104565b92505060206101aa85828601610162565b915050925092905056fea26469706673582212203ebbfb0e44d854ec6466d8b8b89ba189d5594a904498a1d05d4613915d2986d964736f6c63430008160033",
					"opcodes": "PUSH1 0x80 PUSH1 0x40 MSTORE CALLVALUE DUP1 ISZERO PUSH2 0xF JUMPI PUSH0 DUP1 REVERT JUMPDEST POP PUSH2 0x1EA DUP1 PUSH2 0x1D PUSH0 CODECOPY PUSH0 RETURN INVALID PUSH1 0x80 PUSH1 0x40 MSTORE PUSH1 0x4 CALLDATASIZE LT PUSH2 0x2C JUMPI PUSH0 CALLDATALOAD PUSH1 0xE0 SHR DUP1 PUSH4 0x764A5D4C EQ PUSH2 0x37 JUMPI DUP1 PUSH4 0xD27F8E66 EQ PUSH2 0x53 JUMPI PUSH2 0x33 JUMP JUMPDEST CALLDATASIZE PUSH2 0x33 JUMPI STOP JUMPDEST PUSH0 DUP1 REVERT JUMPDEST PUSH2 0x51 PUSH1 0x4 DUP1 CALLDATASIZE SUB DUP2 ADD SWAP1 PUSH2 0x4C SWAP2 SWAP1 PUSH2 0x118 JUMP JUMPDEST PUSH2 0x6F JUMP JUMPDEST STOP JUMPDEST PUSH2 0x6D PUSH1 0x4 DUP1 CALLDATASIZE SUB DUP2 ADD SWAP1 PUSH2 0x68 SWAP2 SWAP1 PUSH2 0x176 JUMP JUMPDEST PUSH2 0x72 JUMP JUMPDEST STOP JUMPDEST POP JUMP JUMPDEST DUP2 PUSH20 0xFFFFFFFFFFFFFFFFFFFFFFFFFFFFFFFFFFFFFFFF AND PUSH2 0x8FC DUP3 SWAP1 DUP2 ISZERO MUL SWAP1 PUSH1 0x40 MLOAD PUSH0 PUSH1 0x40 MLOAD DUP1 DUP4 SUB DUP2 DUP6 DUP9 DUP9 CALL SWAP4 POP POP POP POP ISZERO DUP1 ISZERO PUSH2 0xB5 JUMPI RETURNDATASIZE PUSH0 DUP1 RETURNDATACOPY RETURNDATASIZE PUSH0 REVERT JUMPDEST POP POP POP JUMP JUMPDEST PUSH0 DUP1 REVERT JUMPDEST PUSH0 PUSH20 0xFFFFFFFFFFFFFFFFFFFFFFFFFFFFFFFFFFFFFFFF DUP3 AND SWAP1 POP SWAP2 SWAP1 POP JUMP JUMPDEST PUSH0 PUSH2 0xE7 DUP3 PUSH2 0xBE JUMP JUMPDEST SWAP1 POP SWAP2 SWAP1 POP JUMP JUMPDEST PUSH2 0xF7 DUP2 PUSH2 0xDD JUMP JUMPDEST DUP2 EQ PUSH2 0x101 JUMPI PUSH0 DUP1 REVERT JUMPDEST POP JUMP JUMPDEST PUSH0 DUP2 CALLDATALOAD SWAP1 POP PUSH2 0x112 DUP2 PUSH2 0xEE JUMP JUMPDEST SWAP3 SWAP2 POP POP JUMP JUMPDEST PUSH0 PUSH1 0x20 DUP3 DUP5 SUB SLT ISZERO PUSH2 0x12D JUMPI PUSH2 0x12C PUSH2 0xBA JUMP JUMPDEST JUMPDEST PUSH0 PUSH2 0x13A DUP5 DUP3 DUP6 ADD PUSH2 0x104 JUMP JUMPDEST SWAP2 POP POP SWAP3 SWAP2 POP POP JUMP JUMPDEST PUSH0 DUP2 SWAP1 POP SWAP2 SWAP1 POP JUMP JUMPDEST PUSH2 0x155 DUP2 PUSH2 0x143 JUMP JUMPDEST DUP2 EQ PUSH2 0x15F JUMPI PUSH0 DUP1 REVERT JUMPDEST POP JUMP JUMPDEST PUSH0 DUP2 CALLDATALOAD SWAP1 POP PUSH2 0x170 DUP2 PUSH2 0x14C JUMP JUMPDEST SWAP3 SWAP2 POP POP JUMP JUMPDEST PUSH0 DUP1 PUSH1 0x40 DUP4 DUP6 SUB SLT ISZERO PUSH2 0x18C JUMPI PUSH2 0x18B PUSH2 0xBA JUMP JUMPDEST JUMPDEST PUSH0 PUSH2 0x199 DUP6 DUP3 DUP7 ADD PUSH2 0x104 JUMP JUMPDEST SWAP3 POP POP PUSH1 0x20 PUSH2 0x1AA DUP6 DUP3 DUP7 ADD PUSH2 0x162 JUMP JUMPDEST SWAP2 POP POP SWAP3 POP SWAP3 SWAP1 POP JUMP INVALID LOG2 PUSH5 0x6970667358 0x22 SLT KECCAK256 RETURNDATACOPY 0xBB 0xFB 0xE PREVRANDAO 0xD8 SLOAD 0xEC PUSH5 0x66D8B8B89B LOG1 DUP10 0xD5 MSIZE 0x4A SWAP1 PREVRANDAO SWAP9 LOG1 0xD0 0x5D CHAINID SGT SWAP2 0x5D 0x29 DUP7 0xD9 PUSH5 0x736F6C6343 STOP ADDMOD AND STOP CALLER "
				},
				"gasEstimates": {
					"creation": {
						"codeDepositCost": "98000",
						"executionCost": "145",
						"totalCost": "98145"
					},
					"external": {
						"sendViaTransfer(address,uint256)": "infinite",
						"sendviasend(address)": "403"
					}
				},
				"methodIdentifiers": {
					"sendViaTransfer(address,uint256)": "d27f8e66",
					"sendviasend(address)": "764a5d4c"
				}
			},
			"storageLayout": {
				"storage": [],
				"types": null
			},
			"userdoc": {
				"kind": "user",
				"methods": {},
				"version": 1
			}
		}
	}
}