{
	"enum.sol": {
		"Shipping": {
			"abi": [
				{
					"inputs": [],
					"name": "Emma",
					"outputs": [
						{
							"internalType": "enum Shipping.Taiwo",
							"name": "",
							"type": "uint8"
						}
					],
					"stateMutability": "view",
					"type": "function"
				},
				{
					"inputs": [],
					"name": "accepted",
					"outputs": [],
					"stateMutability": "nonpayable",
					"type": "function"
				},
				{
					"inputs": [],
					"name": "get",
					"outputs": [
						{
							"internalType": "enum Shipping.Taiwo",
							"name": "",
							"type": "uint8"
						}
					],
					"stateMutability": "view",
					"type": "function"
				},
				{
					"inputs": [],
					"name": "reset",
					"outputs": [],
					"stateMutability": "nonpayable",
					"type": "function"
				},
				{
					"inputs": [
						{
							"internalType": "enum Shipping.Taiwo",
							"name": "_x",
							"type": "uint8"
						}
					],
					"name": "set",
					"outputs": [],
					"stateMutability": "nonpayable",
					"type": "function"
				}
			],
			"devdoc": {
				"kind": "dev",
				"methods": {},
				"version": 1
			},
			"evm": {
				"assembly": "    /* \"enum.sol\":58:489  contract Shipping{... */\n  mstore(0x40, 0x80)\n  callvalue\n  dup1\n  iszero\n  tag_1\n  jumpi\n  0x00\n  dup1\n  revert\ntag_1:\n  pop\n  dataSize(sub_0)\n  dup1\n  dataOffset(sub_0)\n  0x00\n  codecopy\n  0x00\n  return\nstop\n\nsub_0: assembly {\n        /* \"enum.sol\":58:489  contract Shipping{... */\n      mstore(0x40, 0x80)\n      callvalue\n      dup1\n      iszero\n      tag_1\n      jumpi\n      0x00\n      dup1\n      revert\n    tag_1:\n      pop\n      jumpi(tag_2, lt(calldatasize, 0x04))\n      shr(0xe0, calldataload(0x00))\n      dup1\n      0x24b8ba5f\n      eq\n      tag_3\n      jumpi\n      dup1\n      0x4b461588\n      eq\n      tag_4\n      jumpi\n      dup1\n      0x67fe5a0c\n      eq\n      tag_5\n      jumpi\n      dup1\n      0x6d4ce63c\n      eq\n      tag_6\n      jumpi\n      dup1\n      0xd826f88f\n      eq\n      tag_7\n      jumpi\n    tag_2:\n      0x00\n      dup1\n      revert\n        /* \"enum.sol\":309:348  function set(Taiwo _x) public{... */\n    tag_3:\n      tag_8\n      0x04\n      dup1\n      calldatasize\n      sub\n      dup2\n      add\n      swap1\n      tag_9\n      swap2\n      swap1\n      tag_10\n      jump\t// in\n    tag_9:\n      tag_11\n      jump\t// in\n    tag_8:\n      stop\n        /* \"enum.sol\":200:217  Taiwo public Emma */\n    tag_4:\n      tag_12\n      tag_13\n      jump\t// in\n    tag_12:\n      mload(0x40)\n      tag_14\n      swap2\n      swap1\n      tag_15\n      jump\t// in\n    tag_14:\n      mload(0x40)\n      dup1\n      swap2\n      sub\n      swap1\n      return\n        /* \"enum.sol\":356:422  function accepted() public{... */\n    tag_5:\n      tag_16\n      tag_17\n      jump\t// in\n    tag_16:\n      stop\n        /* \"enum.sol\":226:297  function get() public view returns(Taiwo){... */\n    tag_6:\n      tag_18\n      tag_19\n      jump\t// in\n    tag_18:\n      mload(0x40)\n      tag_20\n      swap2\n      swap1\n      tag_15\n      jump\t// in\n    tag_20:\n      mload(0x40)\n      dup1\n      swap2\n      sub\n      swap1\n      return\n        /* \"enum.sol\":430:484  function reset() public {... */\n    tag_7:\n      tag_21\n      tag_22\n      jump\t// in\n    tag_21:\n      stop\n        /* \"enum.sol\":309:348  function set(Taiwo _x) public{... */\n    tag_11:\n      pop\n      jump\t// out\n        /* \"enum.sol\":200:217  Taiwo public Emma */\n    tag_13:\n      0x00\n      dup1\n      sload\n      swap1\n      0x0100\n      exp\n      swap1\n      div\n      0xff\n      and\n      dup2\n      jump\t// out\n        /* \"enum.sol\":356:422  function accepted() public{... */\n    tag_17:\n        /* \"enum.sol\":400:414  Taiwo.Accepted */\n      0x02\n        /* \"enum.sol\":393:397  Emma */\n      0x00\n      dup1\n        /* \"enum.sol\":393:414  Emma = Taiwo.Accepted */\n      0x0100\n      exp\n      dup2\n      sload\n      dup2\n      0xff\n      mul\n      not\n      and\n      swap1\n      dup4\n      0x04\n      dup2\n      gt\n      iszero\n      tag_25\n      jumpi\n      tag_26\n      tag_27\n      jump\t// in\n    tag_26:\n    tag_25:\n      mul\n      or\n      swap1\n      sstore\n      pop\n        /* \"enum.sol\":356:422  function accepted() public{... */\n      jump\t// out\n        /* \"enum.sol\":226:297  function get() public view returns(Taiwo){... */\n    tag_19:\n        /* \"enum.sol\":261:266  Taiwo */\n      0x00\n        /* \"enum.sol\":285:289  Emma */\n      dup1\n      0x00\n      swap1\n      sload\n      swap1\n      0x0100\n      exp\n      swap1\n      div\n      0xff\n      and\n        /* \"enum.sol\":278:289  return Emma */\n      swap1\n      pop\n        /* \"enum.sol\":226:297  function get() public view returns(Taiwo){... */\n      swap1\n      jump\t// out\n        /* \"enum.sol\":430:484  function reset() public {... */\n    tag_22:\n        /* \"enum.sol\":472:476  Emma */\n      0x00\n      dup1\n        /* \"enum.sol\":465:476  delete Emma */\n      0x0100\n      exp\n      dup2\n      sload\n      swap1\n      0xff\n      mul\n      not\n      and\n      swap1\n      sstore\n        /* \"enum.sol\":430:484  function reset() public {... */\n      jump\t// out\n        /* \"#utility.yul\":88:205   */\n    tag_31:\n        /* \"#utility.yul\":197:198   */\n      0x00\n        /* \"#utility.yul\":194:195   */\n      dup1\n        /* \"#utility.yul\":187:199   */\n      revert\n        /* \"#utility.yul\":334:440   */\n    tag_33:\n        /* \"#utility.yul\":414:415   */\n      0x05\n        /* \"#utility.yul\":407:412   */\n      dup2\n        /* \"#utility.yul\":404:416   */\n      lt\n        /* \"#utility.yul\":394:434   */\n      tag_44\n      jumpi\n        /* \"#utility.yul\":430:431   */\n      0x00\n        /* \"#utility.yul\":427:428   */\n      dup1\n        /* \"#utility.yul\":420:432   */\n      revert\n        /* \"#utility.yul\":394:434   */\n    tag_44:\n        /* \"#utility.yul\":334:440   */\n      pop\n      jump\t// out\n        /* \"#utility.yul\":446:599   */\n    tag_34:\n        /* \"#utility.yul\":499:504   */\n      0x00\n        /* \"#utility.yul\":537:543   */\n      dup2\n        /* \"#utility.yul\":524:544   */\n      calldataload\n        /* \"#utility.yul\":515:544   */\n      swap1\n      pop\n        /* \"#utility.yul\":553:593   */\n      tag_46\n        /* \"#utility.yul\":587:592   */\n      dup2\n        /* \"#utility.yul\":553:593   */\n      tag_33\n      jump\t// in\n    tag_46:\n        /* \"#utility.yul\":446:599   */\n      swap3\n      swap2\n      pop\n      pop\n      jump\t// out\n        /* \"#utility.yul\":605:948   */\n    tag_10:\n        /* \"#utility.yul\":671:677   */\n      0x00\n        /* \"#utility.yul\":720:722   */\n      0x20\n        /* \"#utility.yul\":708:717   */\n      dup3\n        /* \"#utility.yul\":699:706   */\n      dup5\n        /* \"#utility.yul\":695:718   */\n      sub\n        /* \"#utility.yul\":691:723   */\n      slt\n        /* \"#utility.yul\":688:807   */\n      iszero\n      tag_48\n      jumpi\n        /* \"#utility.yul\":726:805   */\n      tag_49\n      tag_31\n      jump\t// in\n    tag_49:\n        /* \"#utility.yul\":688:807   */\n    tag_48:\n        /* \"#utility.yul\":846:847   */\n      0x00\n        /* \"#utility.yul\":871:931   */\n      tag_50\n        /* \"#utility.yul\":923:930   */\n      dup5\n        /* \"#utility.yul\":914:920   */\n      dup3\n        /* \"#utility.yul\":903:912   */\n      dup6\n        /* \"#utility.yul\":899:921   */\n      add\n        /* \"#utility.yul\":871:931   */\n      tag_34\n      jump\t// in\n    tag_50:\n        /* \"#utility.yul\":861:931   */\n      swap2\n      pop\n        /* \"#utility.yul\":817:941   */\n      pop\n        /* \"#utility.yul\":605:948   */\n      swap3\n      swap2\n      pop\n      pop\n      jump\t// out\n        /* \"#utility.yul\":954:1134   */\n    tag_27:\n        /* \"#utility.yul\":1002:1079   */\n      0x4e487b7100000000000000000000000000000000000000000000000000000000\n        /* \"#utility.yul\":999:1000   */\n      0x00\n        /* \"#utility.yul\":992:1080   */\n      mstore\n        /* \"#utility.yul\":1099:1103   */\n      0x21\n        /* \"#utility.yul\":1096:1097   */\n      0x04\n        /* \"#utility.yul\":1089:1104   */\n      mstore\n        /* \"#utility.yul\":1123:1127   */\n      0x24\n        /* \"#utility.yul\":1120:1121   */\n      0x00\n        /* \"#utility.yul\":1113:1128   */\n      revert\n        /* \"#utility.yul\":1140:1252   */\n    tag_35:\n        /* \"#utility.yul\":1220:1221   */\n      0x05\n        /* \"#utility.yul\":1213:1218   */\n      dup2\n        /* \"#utility.yul\":1210:1222   */\n      lt\n        /* \"#utility.yul\":1200:1246   */\n      tag_53\n      jumpi\n        /* \"#utility.yul\":1226:1244   */\n      tag_54\n      tag_27\n      jump\t// in\n    tag_54:\n        /* \"#utility.yul\":1200:1246   */\n    tag_53:\n        /* \"#utility.yul\":1140:1252   */\n      pop\n      jump\t// out\n        /* \"#utility.yul\":1258:1383   */\n    tag_36:\n        /* \"#utility.yul\":1302:1309   */\n      0x00\n        /* \"#utility.yul\":1331:1336   */\n      dup2\n        /* \"#utility.yul\":1320:1336   */\n      swap1\n      pop\n        /* \"#utility.yul\":1337:1377   */\n      tag_56\n        /* \"#utility.yul\":1371:1376   */\n      dup3\n        /* \"#utility.yul\":1337:1377   */\n      tag_35\n      jump\t// in\n    tag_56:\n        /* \"#utility.yul\":1258:1383   */\n      swap2\n      swap1\n      pop\n      jump\t// out\n        /* \"#utility.yul\":1389:1514   */\n    tag_37:\n        /* \"#utility.yul\":1444:1453   */\n      0x00\n        /* \"#utility.yul\":1477:1508   */\n      tag_58\n        /* \"#utility.yul\":1502:1507   */\n      dup3\n        /* \"#utility.yul\":1477:1508   */\n      tag_36\n      jump\t// in\n    tag_58:\n        /* \"#utility.yul\":1464:1508   */\n      swap1\n      pop\n        /* \"#utility.yul\":1389:1514   */\n      swap2\n      swap1\n      pop\n      jump\t// out\n        /* \"#utility.yul\":1520:1661   */\n    tag_38:\n        /* \"#utility.yul\":1612:1654   */\n      tag_60\n        /* \"#utility.yul\":1648:1653   */\n      dup2\n        /* \"#utility.yul\":1612:1654   */\n      tag_37\n      jump\t// in\n    tag_60:\n        /* \"#utility.yul\":1607:1610   */\n      dup3\n        /* \"#utility.yul\":1600:1655   */\n      mstore\n        /* \"#utility.yul\":1520:1661   */\n      pop\n      pop\n      jump\t// out\n        /* \"#utility.yul\":1667:1899   */\n    tag_15:\n        /* \"#utility.yul\":1765:1769   */\n      0x00\n        /* \"#utility.yul\":1803:1805   */\n      0x20\n        /* \"#utility.yul\":1792:1801   */\n      dup3\n        /* \"#utility.yul\":1788:1806   */\n      add\n        /* \"#utility.yul\":1780:1806   */\n      swap1\n      pop\n        /* \"#utility.yul\":1816:1892   */\n      tag_62\n        /* \"#utility.yul\":1889:1890   */\n      0x00\n        /* \"#utility.yul\":1878:1887   */\n      dup4\n        /* \"#utility.yul\":1874:1891   */\n      add\n        /* \"#utility.yul\":1865:1871   */\n      dup5\n        /* \"#utility.yul\":1816:1892   */\n      tag_38\n      jump\t// in\n    tag_62:\n        /* \"#utility.yul\":1667:1899   */\n      swap3\n      swap2\n      pop\n      pop\n      jump\t// out\n\n    auxdata: 0xa2646970667358221220f70ba85ffabe4d0f3ddb84ebb2a2d22ccbe271c4a5010d9dd9ad7da4a36429df64736f6c63430008180033\n}\n",
				"bytecode": {
					"linkReferences": {},
					"object": "608060405234801561000f575f80fd5b5061023d8061001d5f395ff3fe608060405234801561000f575f80fd5b5060043610610055575f3560e01c806324b8ba5f146100595780634b4615881461007557806367fe5a0c146100935780636d4ce63c1461009d578063d826f88f146100bb575b5f80fd5b610073600480360381019061006e9190610150565b6100c5565b005b61007d6100c8565b60405161008a91906101ee565b60405180910390f35b61009b6100d8565b005b6100a5610103565b6040516100b291906101ee565b60405180910390f35b6100c3610117565b005b50565b5f8054906101000a900460ff1681565b60025f806101000a81548160ff021916908360048111156100fc576100fb61017b565b5b0217905550565b5f805f9054906101000a900460ff16905090565b5f806101000a81549060ff0219169055565b5f80fd5b60058110610139575f80fd5b50565b5f8135905061014a8161012d565b92915050565b5f6020828403121561016557610164610129565b5b5f6101728482850161013c565b91505092915050565b7f4e487b71000000000000000000000000000000000000000000000000000000005f52602160045260245ffd5b600581106101b9576101b861017b565b5b50565b5f8190506101c9826101a8565b919050565b5f6101d8826101bc565b9050919050565b6101e8816101ce565b82525050565b5f6020820190506102015f8301846101df565b9291505056fea2646970667358221220f70ba85ffabe4d0f3ddb84ebb2a2d22ccbe271c4a5010d9dd9ad7da4a36429df64736f6c63430008180033",
					"opcodes": "PUSH1 0x80 PUSH1 0x40 MSTORE CALLVALUE DUP1 ISZERO PUSH2 0xF JUMPI PUSH0 DUP1 REVERT JUMPDEST POP PUSH2 0x23D DUP1 PUSH2 0x1D PUSH0 CODECOPY PUSH0 RETURN INVALID PUSH1 0x80 PUSH1 0x40 MSTORE CALLVALUE DUP1 ISZERO PUSH2 0xF JUMPI PUSH0 DUP1 REVERT JUMPDEST POP PUSH1 0x4 CALLDATASIZE LT PUSH2 0x55 JUMPI PUSH0 CALLDATALOAD PUSH1 0xE0 SHR DUP1 PUSH4 0x24B8BA5F EQ PUSH2 0x59 JUMPI DUP1 PUSH4 0x4B461588 EQ PUSH2 0x75 JUMPI DUP1 PUSH4 0x67FE5A0C EQ PUSH2 0x93 JUMPI DUP1 PUSH4 0x6D4CE63C EQ PUSH2 0x9D JUMPI DUP1 PUSH4 0xD826F88F EQ PUSH2 0xBB JUMPI JUMPDEST PUSH0 DUP1 REVERT JUMPDEST PUSH2 0x73 PUSH1 0x4 DUP1 CALLDATASIZE SUB DUP2 ADD SWAP1 PUSH2 0x6E SWAP2 SWAP1 PUSH2 0x150 JUMP JUMPDEST PUSH2 0xC5 JUMP JUMPDEST STOP JUMPDEST PUSH2 0x7D PUSH2 0xC8 JUMP JUMPDEST PUSH1 0x40 MLOAD PUSH2 0x8A SWAP2 SWAP1 PUSH2 0x1EE JUMP JUMPDEST PUSH1 0x40 MLOAD DUP1 SWAP2 SUB SWAP1 RETURN JUMPDEST PUSH2 0x9B PUSH2 0xD8 JUMP JUMPDEST STOP JUMPDEST PUSH2 0xA5 PUSH2 0x103 JUMP JUMPDEST PUSH1 0x40 MLOAD PUSH2 0xB2 SWAP2 SWAP1 PUSH2 0x1EE JUMP JUMPDEST PUSH1 0x40 MLOAD DUP1 SWAP2 SUB SWAP1 RETURN JUMPDEST PUSH2 0xC3 PUSH2 0x117 JUMP JUMPDEST STOP JUMPDEST POP JUMP JUMPDEST PUSH0 DUP1 SLOAD SWAP1 PUSH2 0x100 EXP SWAP1 DIV PUSH1 0xFF AND DUP2 JUMP JUMPDEST PUSH1 0x2 PUSH0 DUP1 PUSH2 0x100 EXP DUP2 SLOAD DUP2 PUSH1 0xFF MUL NOT AND SWAP1 DUP4 PUSH1 0x4 DUP2 GT ISZERO PUSH2 0xFC JUMPI PUSH2 0xFB PUSH2 0x17B JUMP JUMPDEST JUMPDEST MUL OR SWAP1 SSTORE POP JUMP JUMPDEST PUSH0 DUP1 PUSH0 SWAP1 SLOAD SWAP1 PUSH2 0x100 EXP SWAP1 DIV PUSH1 0xFF AND SWAP1 POP SWAP1 JUMP JUMPDEST PUSH0 DUP1 PUSH2 0x100 EXP DUP2 SLOAD SWAP1 PUSH1 0xFF MUL NOT AND SWAP1 SSTORE JUMP JUMPDEST PUSH0 DUP1 REVERT JUMPDEST PUSH1 0x5 DUP2 LT PUSH2 0x139 JUMPI PUSH0 DUP1 REVERT JUMPDEST POP JUMP JUMPDEST PUSH0 DUP2 CALLDATALOAD SWAP1 POP PUSH2 0x14A DUP2 PUSH2 0x12D JUMP JUMPDEST SWAP3 SWAP2 POP POP JUMP JUMPDEST PUSH0 PUSH1 0x20 DUP3 DUP5 SUB SLT ISZERO PUSH2 0x165 JUMPI PUSH2 0x164 PUSH2 0x129 JUMP JUMPDEST JUMPDEST PUSH0 PUSH2 0x172 DUP5 DUP3 DUP6 ADD PUSH2 0x13C JUMP JUMPDEST SWAP2 POP POP SWAP3 SWAP2 POP POP JUMP JUMPDEST PUSH32 0x4E487B7100000000000000000000000000000000000000000000000000000000 PUSH0 MSTORE PUSH1 0x21 PUSH1 0x4 MSTORE PUSH1 0x24 PUSH0 REVERT JUMPDEST PUSH1 0x5 DUP2 LT PUSH2 0x1B9 JUMPI PUSH2 0x1B8 PUSH2 0x17B JUMP JUMPDEST JUMPDEST POP JUMP JUMPDEST PUSH0 DUP2 SWAP1 POP PUSH2 0x1C9 DUP3 PUSH2 0x1A8 JUMP JUMPDEST SWAP2 SWAP1 POP JUMP JUMPDEST PUSH0 PUSH2 0x1D8 DUP3 PUSH2 0x1BC JUMP JUMPDEST SWAP1 POP SWAP2 SWAP1 POP JUMP JUMPDEST PUSH2 0x1E8 DUP2 PUSH2 0x1CE JUMP JUMPDEST DUP3 MSTORE POP POP JUMP JUMPDEST PUSH0 PUSH1 0x20 DUP3 ADD SWAP1 POP PUSH2 0x201 PUSH0 DUP4 ADD DUP5 PUSH2 0x1DF JUMP JUMPDEST SWAP3 SWAP2 POP POP JUMP INVALID LOG2 PUSH5 0x6970667358 0x22 SLT KECCAK256 0xF7 SIGNEXTEND 0xA8 PUSH0 STATICCALL 0xBE 0x4D 0xF RETURNDATASIZE 0xDB DUP5 0xEB 0xB2 LOG2 0xD2 0x2C 0xCB 0xE2 PUSH18 0xC4A5010D9DD9AD7DA4A36429DF64736F6C63 NUMBER STOP ADDMOD XOR STOP CALLER "
				},
				"gasEstimates": {
					"creation": {
						"codeDepositCost": "114600",
						"executionCost": "157",
						"totalCost": "114757"
					},
					"external": {
						"Emma()": "2551",
						"accepted()": "24451",
						"get()": "2605",
						"reset()": "24450",
						"set(uint8)": "337"
					}
				},
				"methodIdentifiers": {
					"Emma()": "4b461588",
					"accepted()": "67fe5a0c",
					"get()": "6d4ce63c",
					"reset()": "d826f88f",
					"set(uint8)": "24b8ba5f"
				}
			},
			"storageLayout": {
				"storage": [
					{
						"astId": 10,
						"contract": "enum.sol:Shipping",
						"label": "Emma",
						"offset": 0,
						"slot": "0",
						"type": "t_enum(Taiwo)7"
					}
				],
				"types": {
					"t_enum(Taiwo)7": {
						"encoding": "inplace",
						"label": "enum Shipping.Taiwo",
						"numberOfBytes": "1"
					}
				}
			},
			"userdoc": {
				"kind": "user",
				"methods": {},
				"version": 1
			}
		}
	}
}