{
	"contracts/tee.sol": {
		"tee": {
			"abi": [
				{
					"inputs": [],
					"name": "joy",
					"outputs": [
						{
							"internalType": "uint256",
							"name": "",
							"type": "uint256"
						}
					],
					"stateMutability": "view",
					"type": "function"
				},
				{
					"inputs": [],
					"name": "vee",
					"outputs": [],
					"stateMutability": "nonpayable",
					"type": "function"
				}
			],
			"devdoc": {
				"kind": "dev",
				"methods": {},
				"version": 1
			},
			"evm": {
				"assembly": "    /* \"contracts/tee.sol\":60:180  contract tee{... */\n  mstore(0x40, 0x80)\n    /* \"contracts/tee.sol\":99:102  130 */\n  0x82\n    /* \"contracts/tee.sol\":81:102  uint public joy = 130 */\n  0x00\n  sstore\n    /* \"contracts/tee.sol\":60:180  contract tee{... */\n  callvalue\n  dup1\n  iszero\n  tag_1\n  jumpi\n  0x00\n  dup1\n  revert\ntag_1:\n  pop\n  dataSize(sub_0)\n  dup1\n  dataOffset(sub_0)\n  0x00\n  codecopy\n  0x00\n  return\nstop\n\nsub_0: assembly {\n        /* \"contracts/tee.sol\":60:180  contract tee{... */\n      mstore(0x40, 0x80)\n      callvalue\n      dup1\n      iszero\n      tag_1\n      jumpi\n      0x00\n      dup1\n      revert\n    tag_1:\n      pop\n      jumpi(tag_2, lt(calldatasize, 0x04))\n      shr(0xe0, calldataload(0x00))\n      dup1\n      0x39679d0d\n      eq\n      tag_3\n      jumpi\n      dup1\n      0x465b43d0\n      eq\n      tag_4\n      jumpi\n    tag_2:\n      0x00\n      dup1\n      revert\n        /* \"contracts/tee.sol\":111:176  function vee() public{... */\n    tag_3:\n      tag_5\n      tag_6\n      jump\t// in\n    tag_5:\n      stop\n        /* \"contracts/tee.sol\":81:102  uint public joy = 130 */\n    tag_4:\n      tag_7\n      tag_8\n      jump\t// in\n    tag_7:\n      mload(0x40)\n      tag_9\n      swap2\n      swap1\n      tag_10\n      jump\t// in\n    tag_9:\n      mload(0x40)\n      dup1\n      swap2\n      sub\n      swap1\n      return\n        /* \"contracts/tee.sol\":111:176  function vee() public{... */\n    tag_6:\n        /* \"contracts/tee.sol\":148:149  4 */\n      0x04\n        /* \"contracts/tee.sol\":143:146  joy */\n      0x00\n      dup1\n        /* \"contracts/tee.sol\":143:149  joy*=4 */\n      dup3\n      dup3\n      sload\n      tag_12\n      swap2\n      swap1\n      tag_13\n      jump\t// in\n    tag_12:\n      swap3\n      pop\n      pop\n      dup2\n      swap1\n      sstore\n      pop\n        /* \"contracts/tee.sol\":165:166  2 */\n      0x02\n        /* \"contracts/tee.sol\":160:163  joy */\n      0x00\n      dup1\n        /* \"contracts/tee.sol\":160:166  joy/=2 */\n      dup3\n      dup3\n      sload\n      tag_14\n      swap2\n      swap1\n      tag_15\n      jump\t// in\n    tag_14:\n      swap3\n      pop\n      pop\n      dup2\n      swap1\n      sstore\n      pop\n        /* \"contracts/tee.sol\":111:176  function vee() public{... */\n      jump\t// out\n        /* \"contracts/tee.sol\":81:102  uint public joy = 130 */\n    tag_8:\n      sload(0x00)\n      dup2\n      jump\t// out\n        /* \"#utility.yul\":7:84   */\n    tag_16:\n        /* \"#utility.yul\":44:51   */\n      0x00\n        /* \"#utility.yul\":73:78   */\n      dup2\n        /* \"#utility.yul\":62:78   */\n      swap1\n      pop\n        /* \"#utility.yul\":7:84   */\n      swap2\n      swap1\n      pop\n      jump\t// out\n        /* \"#utility.yul\":90:208   */\n    tag_17:\n        /* \"#utility.yul\":177:201   */\n      tag_23\n        /* \"#utility.yul\":195:200   */\n      dup2\n        /* \"#utility.yul\":177:201   */\n      tag_16\n      jump\t// in\n    tag_23:\n        /* \"#utility.yul\":172:175   */\n      dup3\n        /* \"#utility.yul\":165:202   */\n      mstore\n        /* \"#utility.yul\":90:208   */\n      pop\n      pop\n      jump\t// out\n        /* \"#utility.yul\":214:436   */\n    tag_10:\n        /* \"#utility.yul\":307:311   */\n      0x00\n        /* \"#utility.yul\":345:347   */\n      0x20\n        /* \"#utility.yul\":334:343   */\n      dup3\n        /* \"#utility.yul\":330:348   */\n      add\n        /* \"#utility.yul\":322:348   */\n      swap1\n      pop\n        /* \"#utility.yul\":358:429   */\n      tag_25\n        /* \"#utility.yul\":426:427   */\n      0x00\n        /* \"#utility.yul\":415:424   */\n      dup4\n        /* \"#utility.yul\":411:428   */\n      add\n        /* \"#utility.yul\":402:408   */\n      dup5\n        /* \"#utility.yul\":358:429   */\n      tag_17\n      jump\t// in\n    tag_25:\n        /* \"#utility.yul\":214:436   */\n      swap3\n      swap2\n      pop\n      pop\n      jump\t// out\n        /* \"#utility.yul\":442:622   */\n    tag_18:\n        /* \"#utility.yul\":490:567   */\n      0x4e487b7100000000000000000000000000000000000000000000000000000000\n        /* \"#utility.yul\":487:488   */\n      0x00\n        /* \"#utility.yul\":480:568   */\n      mstore\n        /* \"#utility.yul\":587:591   */\n      0x11\n        /* \"#utility.yul\":584:585   */\n      0x04\n        /* \"#utility.yul\":577:592   */\n      mstore\n        /* \"#utility.yul\":611:615   */\n      0x24\n        /* \"#utility.yul\":608:609   */\n      0x00\n        /* \"#utility.yul\":601:616   */\n      revert\n        /* \"#utility.yul\":628:1038   */\n    tag_13:\n        /* \"#utility.yul\":668:675   */\n      0x00\n        /* \"#utility.yul\":691:711   */\n      tag_28\n        /* \"#utility.yul\":709:710   */\n      dup3\n        /* \"#utility.yul\":691:711   */\n      tag_16\n      jump\t// in\n    tag_28:\n        /* \"#utility.yul\":686:711   */\n      swap2\n      pop\n        /* \"#utility.yul\":725:745   */\n      tag_29\n        /* \"#utility.yul\":743:744   */\n      dup4\n        /* \"#utility.yul\":725:745   */\n      tag_16\n      jump\t// in\n    tag_29:\n        /* \"#utility.yul\":720:745   */\n      swap3\n      pop\n        /* \"#utility.yul\":780:781   */\n      dup3\n        /* \"#utility.yul\":777:778   */\n      dup3\n        /* \"#utility.yul\":773:782   */\n      mul\n        /* \"#utility.yul\":802:832   */\n      tag_30\n        /* \"#utility.yul\":820:831   */\n      dup2\n        /* \"#utility.yul\":802:832   */\n      tag_16\n      jump\t// in\n    tag_30:\n        /* \"#utility.yul\":791:832   */\n      swap2\n      pop\n        /* \"#utility.yul\":981:982   */\n      dup3\n        /* \"#utility.yul\":972:979   */\n      dup3\n        /* \"#utility.yul\":968:983   */\n      div\n        /* \"#utility.yul\":965:966   */\n      dup5\n        /* \"#utility.yul\":962:984   */\n      eq\n        /* \"#utility.yul\":942:943   */\n      dup4\n        /* \"#utility.yul\":935:944   */\n      iszero\n        /* \"#utility.yul\":915:998   */\n      or\n        /* \"#utility.yul\":892:1031   */\n      tag_31\n      jumpi\n        /* \"#utility.yul\":1011:1029   */\n      tag_32\n      tag_18\n      jump\t// in\n    tag_32:\n        /* \"#utility.yul\":892:1031   */\n    tag_31:\n        /* \"#utility.yul\":676:1038   */\n      pop\n        /* \"#utility.yul\":628:1038   */\n      swap3\n      swap2\n      pop\n      pop\n      jump\t// out\n        /* \"#utility.yul\":1044:1224   */\n    tag_19:\n        /* \"#utility.yul\":1092:1169   */\n      0x4e487b7100000000000000000000000000000000000000000000000000000000\n        /* \"#utility.yul\":1089:1090   */\n      0x00\n        /* \"#utility.yul\":1082:1170   */\n      mstore\n        /* \"#utility.yul\":1189:1193   */\n      0x12\n        /* \"#utility.yul\":1186:1187   */\n      0x04\n        /* \"#utility.yul\":1179:1194   */\n      mstore\n        /* \"#utility.yul\":1213:1217   */\n      0x24\n        /* \"#utility.yul\":1210:1211   */\n      0x00\n        /* \"#utility.yul\":1203:1218   */\n      revert\n        /* \"#utility.yul\":1230:1415   */\n    tag_15:\n        /* \"#utility.yul\":1270:1271   */\n      0x00\n        /* \"#utility.yul\":1287:1307   */\n      tag_35\n        /* \"#utility.yul\":1305:1306   */\n      dup3\n        /* \"#utility.yul\":1287:1307   */\n      tag_16\n      jump\t// in\n    tag_35:\n        /* \"#utility.yul\":1282:1307   */\n      swap2\n      pop\n        /* \"#utility.yul\":1321:1341   */\n      tag_36\n        /* \"#utility.yul\":1339:1340   */\n      dup4\n        /* \"#utility.yul\":1321:1341   */\n      tag_16\n      jump\t// in\n    tag_36:\n        /* \"#utility.yul\":1316:1341   */\n      swap3\n      pop\n        /* \"#utility.yul\":1360:1361   */\n      dup3\n        /* \"#utility.yul\":1350:1385   */\n      tag_37\n      jumpi\n        /* \"#utility.yul\":1365:1383   */\n      tag_38\n      tag_19\n      jump\t// in\n    tag_38:\n        /* \"#utility.yul\":1350:1385   */\n    tag_37:\n        /* \"#utility.yul\":1407:1408   */\n      dup3\n        /* \"#utility.yul\":1404:1405   */\n      dup3\n        /* \"#utility.yul\":1400:1409   */\n      div\n        /* \"#utility.yul\":1395:1409   */\n      swap1\n      pop\n        /* \"#utility.yul\":1230:1415   */\n      swap3\n      swap2\n      pop\n      pop\n      jump\t// out\n\n    auxdata: 0xa26469706673582212208f9047585b61eadd90d5055d322217b305d7737cc2d8adf0eed10236a6881c8c64736f6c63430008160033\n}\n",
				"bytecode": {
					"linkReferences": {},
					"object": "608060405260825f55348015610013575f80fd5b506101c9806100215f395ff3fe608060405234801561000f575f80fd5b5060043610610034575f3560e01c806339679d0d14610038578063465b43d014610042575b5f80fd5b610040610060565b005b61004a610092565b60405161005791906100af565b60405180910390f35b60045f8082825461007191906100f5565b9250508190555060025f808282546100899190610163565b92505081905550565b5f5481565b5f819050919050565b6100a981610097565b82525050565b5f6020820190506100c25f8301846100a0565b92915050565b7f4e487b71000000000000000000000000000000000000000000000000000000005f52601160045260245ffd5b5f6100ff82610097565b915061010a83610097565b925082820261011881610097565b9150828204841483151761012f5761012e6100c8565b5b5092915050565b7f4e487b71000000000000000000000000000000000000000000000000000000005f52601260045260245ffd5b5f61016d82610097565b915061017883610097565b92508261018857610187610136565b5b82820490509291505056fea26469706673582212208f9047585b61eadd90d5055d322217b305d7737cc2d8adf0eed10236a6881c8c64736f6c63430008160033",
					"opcodes": "PUSH1 0x80 PUSH1 0x40 MSTORE PUSH1 0x82 PUSH0 SSTORE CALLVALUE DUP1 ISZERO PUSH2 0x13 JUMPI PUSH0 DUP1 REVERT JUMPDEST POP PUSH2 0x1C9 DUP1 PUSH2 0x21 PUSH0 CODECOPY PUSH0 RETURN INVALID PUSH1 0x80 PUSH1 0x40 MSTORE CALLVALUE DUP1 ISZERO PUSH2 0xF JUMPI PUSH0 DUP1 REVERT JUMPDEST POP PUSH1 0x4 CALLDATASIZE LT PUSH2 0x34 JUMPI PUSH0 CALLDATALOAD PUSH1 0xE0 SHR DUP1 PUSH4 0x39679D0D EQ PUSH2 0x38 JUMPI DUP1 PUSH4 0x465B43D0 EQ PUSH2 0x42 JUMPI JUMPDEST PUSH0 DUP1 REVERT JUMPDEST PUSH2 0x40 PUSH2 0x60 JUMP JUMPDEST STOP JUMPDEST PUSH2 0x4A PUSH2 0x92 JUMP JUMPDEST PUSH1 0x40 MLOAD PUSH2 0x57 SWAP2 SWAP1 PUSH2 0xAF JUMP JUMPDEST PUSH1 0x40 MLOAD DUP1 SWAP2 SUB SWAP1 RETURN JUMPDEST PUSH1 0x4 PUSH0 DUP1 DUP3 DUP3 SLOAD PUSH2 0x71 SWAP2 SWAP1 PUSH2 0xF5 JUMP JUMPDEST SWAP3 POP POP DUP2 SWAP1 SSTORE POP PUSH1 0x2 PUSH0 DUP1 DUP3 DUP3 SLOAD PUSH2 0x89 SWAP2 SWAP1 PUSH2 0x163 JUMP JUMPDEST SWAP3 POP POP DUP2 SWAP1 SSTORE POP JUMP JUMPDEST PUSH0 SLOAD DUP2 JUMP JUMPDEST PUSH0 DUP2 SWAP1 POP SWAP2 SWAP1 POP JUMP JUMPDEST PUSH2 0xA9 DUP2 PUSH2 0x97 JUMP JUMPDEST DUP3 MSTORE POP POP JUMP JUMPDEST PUSH0 PUSH1 0x20 DUP3 ADD SWAP1 POP PUSH2 0xC2 PUSH0 DUP4 ADD DUP5 PUSH2 0xA0 JUMP JUMPDEST SWAP3 SWAP2 POP POP JUMP JUMPDEST PUSH32 0x4E487B7100000000000000000000000000000000000000000000000000000000 PUSH0 MSTORE PUSH1 0x11 PUSH1 0x4 MSTORE PUSH1 0x24 PUSH0 REVERT JUMPDEST PUSH0 PUSH2 0xFF DUP3 PUSH2 0x97 JUMP JUMPDEST SWAP2 POP PUSH2 0x10A DUP4 PUSH2 0x97 JUMP JUMPDEST SWAP3 POP DUP3 DUP3 MUL PUSH2 0x118 DUP2 PUSH2 0x97 JUMP JUMPDEST SWAP2 POP DUP3 DUP3 DIV DUP5 EQ DUP4 ISZERO OR PUSH2 0x12F JUMPI PUSH2 0x12E PUSH2 0xC8 JUMP JUMPDEST JUMPDEST POP SWAP3 SWAP2 POP POP JUMP JUMPDEST PUSH32 0x4E487B7100000000000000000000000000000000000000000000000000000000 PUSH0 MSTORE PUSH1 0x12 PUSH1 0x4 MSTORE PUSH1 0x24 PUSH0 REVERT JUMPDEST PUSH0 PUSH2 0x16D DUP3 PUSH2 0x97 JUMP JUMPDEST SWAP2 POP PUSH2 0x178 DUP4 PUSH2 0x97 JUMP JUMPDEST SWAP3 POP DUP3 PUSH2 0x188 JUMPI PUSH2 0x187 PUSH2 0x136 JUMP JUMPDEST JUMPDEST DUP3 DUP3 DIV SWAP1 POP SWAP3 SWAP2 POP POP JUMP INVALID LOG2 PUSH5 0x6970667358 0x22 SLT KECCAK256 DUP16 SWAP1 SELFBALANCE PC JUMPDEST PUSH2 0xEADD SWAP1 0xD5 SDIV 0x5D ORIGIN 0x22 OR 0xB3 SDIV 0xD7 PUSH20 0x7CC2D8ADF0EED10236A6881C8C64736F6C634300 ADDMOD AND STOP CALLER "
				},
				"gasEstimates": {
					"creation": {
						"codeDepositCost": "91400",
						"executionCost": "22244",
						"totalCost": "113644"
					},
					"external": {
						"joy()": "2424",
						"vee()": "infinite"
					}
				},
				"methodIdentifiers": {
					"joy()": "465b43d0",
					"vee()": "39679d0d"
				}
			},
			"storageLayout": {
				"storage": [
					{
						"astId": 4,
						"contract": "contracts/tee.sol:tee",
						"label": "joy",
						"offset": 0,
						"slot": "0",
						"type": "t_uint256"
					}
				],
				"types": {
					"t_uint256": {
						"encoding": "inplace",
						"label": "uint256",
						"numberOfBytes": "32"
					}
				}
			},
			"userdoc": {
				"kind": "user",
				"methods": {},
				"version": 1
			}
		}
	}
}