{
	"data": {
		"bytecode": {
			"linkReferences": {},
			"object": "6080604052348015600f57600080fd5b50606d80601d6000396000f3fe6080604052348015600f57600080fd5b506004361060285760003560e01c80635a5ccbbe14602d575b600080fd5b60336035565b005b56fea2646970667358221220e741bc94444474bcda4a0677090e5d84163d12e9198fa7591c8222e78a3909e064736f6c63430008120033",
			"opcodes": "PUSH1 0x80 PUSH1 0x40 MSTORE CALLVALUE DUP1 ISZERO PUSH1 0xF JUMPI PUSH1 0x0 DUP1 REVERT JUMPDEST POP PUSH1 0x6D DUP1 PUSH1 0x1D PUSH1 0x0 CODECOPY PUSH1 0x0 RETURN INVALID PUSH1 0x80 PUSH1 0x40 MSTORE CALLVALUE DUP1 ISZERO PUSH1 0xF JUMPI PUSH1 0x0 DUP1 REVERT JUMPDEST POP PUSH1 0x4 CALLDATASIZE LT PUSH1 0x28 JUMPI PUSH1 0x0 CALLDATALOAD PUSH1 0xE0 SHR DUP1 PUSH4 0x5A5CCBBE EQ PUSH1 0x2D JUMPI JUMPDEST PUSH1 0x0 DUP1 REVERT JUMPDEST PUSH1 0x33 PUSH1 0x35 JUMP JUMPDEST STOP JUMPDEST JUMP INVALID LOG2 PUSH5 0x6970667358 0x22 SLT KECCAK256 0xE7 COINBASE 0xBC SWAP5 PREVRANDAO PREVRANDAO PUSH21 0xBCDA4A0677090E5D84163D12E9198FA7591C8222E7 DUP11 CODECOPY MULMOD 0xE0 PUSH5 0x736F6C6343 STOP ADDMOD SLT STOP CALLER "
		},
		"gasEstimates": {
			"creation": {
				"codeDepositCost": "21800",
				"executionCost": "75",
				"totalCost": "21875"
			},
			"external": {
				"tech4dev()": "122"
			}
		},
		"methodIdentifiers": {
			"tech4dev()": "5a5ccbbe"
		}
	},
	"abi": [
		{
			"inputs": [],
			"name": "tech4dev",
			"outputs": [],
			"stateMutability": "nonpayable",
			"type": "function"
		}
	]
}